:100000000C942A000C940D080C9447080C9447009B
:100010000C9447000C94E1030C9447000C944700A7
:100020000C9447000C9447000C9447000C94470034
:100030000C9447000C9489000C9447000C944700E2
:100040000C9447000C9447000C9447000C94470014
:100050000C94470011241FBECFE5D8E0DEBFCDBF12
:1000600011E0A0E6B0E0E0ECF2E202C005900D92F3
:10007000A037B107D9F711E0A0E7B1E001C01D92A8
:10008000A13DB107E1F70E94E5040C945E110C94C8
:10009000000010BC82E289B9EBE2F0E0808182606E
:1000A0008083EAE2F0E08081886980830895089582
:1000B00008950895089508950895982F882321F4A8
:1000C00081E0809370011BC08F3F51F480917001DB
:1000D000882331F08F5F80937001853020F40FC04A
:1000E000109270010CC0109270016091AC016F5FB2
:1000F0008DEA91E00E941A021092AC010895E091FD
:10010000AC01EF5FE093AC01F0E0E455FE4F90836B
:1001100008951F920F920FB60F9211242F933F93C1
:100120004F935F936F937F938F939F93AF93BF93FF
:10013000EF93FF935C9B03C01092AC0103C08CB1A2
:100140000E945D00FF91EF91BF91AF919F918F91C0
:100150007F916F915F914F913F912F910F900FBEC3
:100160000F901F90189581E791E008950E94B300C9
:10017000FC018081108208950F931F93DF93CF932A
:10018000CDB7DEB729970FB6F894DEBF0FBECDBF4F
:10019000809172018823A1F48E010F5F1F4FC80167
:1001A0006AE04CE050E00E949302A3E7B1E0F8015E
:1001B00089E001900D928150E1F781E08093720116
:1001C00083E791E029960FB6F894DEBF0FBECDBF4E
:1001D000CF91DF911F910F910895EF92FF920F93AE
:1001E0001F93DF93CF93CDB7DEB76C970FB6F8941C
:1001F000DEBF0FBECDBFE98AFA8A0B8B1C8B2D8B1D
:100200003E8B4F8B588F698F7A8F8B8F9C8F8AEFA5
:1002100089838E010E5F1F4F492F9E012E5E3F4F37
:10022000802F912F622F732F50E00E94D2106C8D7F
:100230006F5F7E010894E11CF11CC7010E94BD02A2
:100240006C8D262F30E0020F131FF8019083FE0102
:10025000E20FF31F83836D5FC7010E9459006C9604
:100260000FB6F894DEBF0FBECDBFCF91DF911F91C7
:100270000F91FF90EF900895EF92FF920F931F93CD
:10028000DF93CF93CDB7DEB72C970FB6F894DEBFD0
:100290000FBECDBF9FEF9A838B836C8393E09C87C7
:1002A000E980FF24FA94082F162F2D813E814F817B
:1002B000588569857A858B850E94ED002C960FB64E
:1002C000F894DEBF0FBECDBFCF91DF911F910F918C
:1002D000FF90EF900895EF92FF920F931F93DF939B
:1002E000CF93CDB7DEB72C970FB6F894DEBF0FBE15
:1002F000CDBFF82EE92E0E94BC0090937D01809323
:100300007C018E010F5F1F4FB8010E9428028F2DC4
:100310009E2DDC01F8018CE001900D928150E1F7F7
:100320008F2D9E2D2C960FB6F894DEBF0FBECDBF3D
:10033000CF91DF911F910F91FF90EF9008958F92D1
:100340009F92AF92BF92DF92EF92FF920F931F9313
:10035000DF93CF93CDB7DEB72C970FB6F894DEBFFF
:100360000FBECDBF8C01762F7550362F37500F2E14
:10037000FAEFDF2EF02DD60E1B861A8668506C879A
:10038000772381F140E050E04E010894811C911CDC
:100390005C01AD0CB11C7C01E30EF11C442321F483
:1003A000F801808189831AC0341729F4F70180810C
:1003B0001A868B8713C0D41649F4F50120818A85EB
:1003C0009B85820F911D9B878A8708C0F401E40FEB
:1003D000F51FD801A40FB51F8C9180834F5F5F4F2D
:1003E0004717E0F2C801632F0E94BD022A853B85B2
:1003F0008217930731F00E94B300FC0181E08083F3
:1004000007C00E94BC00BE016F5F7F4F0E945D026B
:100410002C960FB6F894DEBF0FBECDBFCF91DF9103
:100420001F910F91FF90EF90DF90BF90AF909F9042
:100430008F900895F8940E949F0178940895FC018C
:1004400082810895FC01868180937E011682089541
:10045000CF93DF93EC018A81882319F483E08E83A4
:1004600029C0298120937F0130E08B8190E00197A2
:10047000821793070CF41982EC81FD81898190E049
:100480009C012E9FC0012F9F900D3E9F900D112427
:100490002F813885280F391F862F972F622F732FB2
:1004A0004E2F5F2F0E94D2108A8181508A838981CA
:1004B0008F5F8983DF91CF910895CF93DF93EC0114
:1004C0008B81282F30E08A8190E001962817390728
:1004D0001CF482E08E8324C0888190E0215030405B
:1004E000281739070CF41882EC81FD81888190E08F
:1004F0009C012E9FC0012F9F900D3E9F900D1124B7
:100500002F813885280F391F822F932F4E2F5F2F71
:100510000E94D21088818F5F88838A818F5F8A834F
:10052000DF91CF910895FF920F931F93CF93DF93A5
:10053000EC01F62E8A01862F90E0BA010E94B10FDD
:10054000009759F418861F8281E08E831D830C83E7
:10055000FB821A821982188209C098878F831E82B3
:100560001D830C83FB821A8219821882CE01DF91CF
:10057000CF911F910F91FF900895DC0170E06115FC
:10058000710519F44FEF5FEF24C020E030E04FEF2A
:100590005FEFFD01E20FF31F80814827842F8295D2
:1005A0008427082E869586958025082E8695802599
:1005B0008770042E452F869507948795502D4827E0
:1005C00006948795502548272F5F3F4F26173707FA
:1005D00000F3842F952F0895BC0110928101109291
:1005E000800123C0FB01E40FF51F20818091600092
:1005F000909161008227082E8295807F8025092EA8
:10060000982F82958F700826869598278927880FBE
:10061000880F880F80259093610080936000CA0145
:1006200001969093810180938001A62FB72FFD0141
:1006300001900020E9F73197EA1BFB0B4091800104
:10064000509181014E175F0708F4CCCF8091600074
:10065000909161000895E1E3F0E080818063808300
:100660001BBC1ABC19BC18BCEFE4F0E08081836AA3
:100670008083EEE4F0E08081816080830895EEE481
:10068000F0E090818770987F892B8083089588237C
:1006900019F0813031F403C07BBD6ABD089579BD86
:1006A00068BD0895E5E4F0E0808182608083E9E53B
:1006B000F0E0808180648083089582E891E008956D
:1006C0000E945D03FC0184B5208131814281538108
:1006D000542F432F322F2227280F311D411D511D2A
:1006E000622F732F842F952F089561157105810551
:1006F000910511F40E9460030E940C0D20E034E289
:1007000044E75BE40E94AC0B20E030E040E051E4C1
:100710000E94B20A20E030E04AE754E40E94B20AA4
:100720000895AF92BF92CF92DF92EF92FF920F9314
:100730001F93DF93CF93CDB7DEB728970FB6F8940A
:10074000DEBF0FBECDBF7B018C010E9460035B0149
:100750006C01E616F7060807190738F49B01AC018F
:100760002E193F09400B510B0CC0DC01CB0180500E
:10077000904CAD4BB04F9C01AD012E193F09400B81
:10078000510BAD82BE82CF82D88629833A834B83B8
:100790005C833A814B815C816A2D7E818F81988553
:1007A00028960FB6F894DEBF0FBECDBFCF91DF9174
:1007B0001F910F91FF90EF90DF90CF90BF90AF907F
:1007C000089578941F920F920FB60F9211242F93D1
:1007D0003F934F935F936F937F938F939F93AF93C9
:1007E000BF93EF93FF930E945D03FC018081918191
:1007F000A281B3810196A11DB11D80839183A28343
:10080000B38380549244AF40B04020F010821182F4
:1008100012821382FF91EF91BF91AF919F918F91BF
:100820007F916F915F914F913F912F910F900FBEEC
:100830000F901F90189586E891E008950F931F93ED
:100840008C010E941B04FC01D80111962C91119778
:100850009C9180E0820F911D918380831F910F9165
:1008600008950895EF92FF920F931F93DF93CF9314
:10087000CDB7DEB72C970FB6F894DEBF0FBECDBF55
:10088000262F90E39A838B837C836D8394E09C87EF
:10089000E9800F2EF0E3FF2EF02D082F172F3E8159
:1008A0004F81588569857A858B850E94ED002C964D
:1008B0000FB6F894DEBF0FBECDBFCF91DF911F9171
:1008C0000F91FF90EF900895EF92FF920F931F9377
:1008D000DF93CF93CDB7DEB72C970FB6F894DEBF7A
:1008E0000FBECDBF20E22A839B838C8323E02C871D
:1008F000E980FF246894F5F8092F182F2D813E8197
:100900004F81588569857A858B8593E00E94ED003B
:100910002C960FB6F894DEBF0FBECDBFCF91DF91FE
:100920001F910F91FF90EF900895FC0180810E942C
:100930003F030895FC01718160E08281680F711DA1
:1009400080810E9447030895EF92FF920F931F93B7
:10095000DF93CF93CDB7DEB72C970FB6F894DEBFF9
:100960000FBECDBFE982EF2DFA820B831C832D834E
:100970003E834F83588769877A878B879C87E131CD
:1009800049F0E13261F0E03179F4CE0103960E9442
:100990009A040EC0CE0103960E94950409C0CE01B0
:1009A00003960E941E0404C083E060E00E943C01A4
:1009B0002C960FB6F894DEBF0FBECDBFCF91DF915E
:1009C0001F910F91FF90EF900895EF92FF920F9378
:1009D0001F93DF93CF93CDB7DEB7AA970FB6F894E6
:1009E000DEBF0FBECDBF0E94BC0098878F830E94E0
:1009F00052031B821C821D821E820E9449000E949B
:100A0000A40580E060E048EE53E00E94020680E02A
:100A10000E9425069A838983E981FA8188EE93E012
:100A20009183808378940E94B60089878985882382
:100A300029F082E069850E943C01F5CFEF81F885BD
:100A40008281882301F11986CE010A960E946B01EA
:100A50008F8198850E94220289878985882329F0C1
:100A600081E069850E943C01DECFEA84FB840C852D
:100A70001D852E853F85488959896A897B898C899E
:100A80009D890E94A4048B819C81AD81BE81BC01A3
:100A9000CD010E9491032E8F3F8F48A359A36AA3D3
:100AA0007BA38CA39DA3CE0146969FA38EA3FE019C
:100AB0007E96F9A7E8A7F8E0FAA7E8A5F9A50080CF
:100AC00088A599A5019699A788A7EEA1FFA1008204
:100AD0008EA19FA101969FA38EA39AA591509AA73C
:100AE000EAA5EE2351F78E899F89A88DB98DBC01A7
:100AF000CD010E947503DC01CB01BC01CD0120E0DA
:100B000030E040EA51E40E94580C18160CF08BCFEC
:100B10008A8D9B8DAC8DBD8D8B839C83AD83BE8375
:100B20000E944006E981FA8182819381A481B58186
:100B3000BC01CD010E94DC08DC01CB019C0182E7F5
:100B4000B9010E9432046FCFDF93CF9300D00F9290
:100B5000CDB7DEB7A5E5B0E0E5E5F0E080818560E2
:100B60008C93ABE5B0E0EBE5F0E08081806C8C939A
:100B70000E942B0383E00E943F0319823AC08981BF
:100B80000E9425069B838A83EA81FB811182108261
:100B9000EA81FB8180E090E0A0E0B0E08283938373
:100BA000A483B583EA81FB8180E090E0A0E0B0E01F
:100BB00086839783A087B187EA81FB8180E090E0FC
:100BC000A0E0B0E082879387A487B587EA81FB81A4
:100BD00080E090E0A0E0B0E086879787A08BB18BA3
:100BE000EA81FB81128AEA81FB81138A89818F5F06
:100BF00089838981882319F20F900F900F90CF91EC
:100C0000DF910895DF93CF9300D000D000D0CDB70F
:100C1000DEB78B836C835E834D838B810E942506B8
:100C20009A838983E981FA818D819E819183808372
:100C3000E981FA818C81828B26960FB6F894DEBF0B
:100C40000FBECDBFCF91DF910895DF93CF930F9269
:100C5000CDB7DEB789838981882F90E09C01220F70
:100C6000331F220F331FC901880F991F880F991F47
:100C7000820F931F88579E4F0F90CF91DF91089559
:100C8000EF92FF920F931F93DF93CF93CDB7DEB711
:100C90002F970FB6F894DEBF0FBECDBF1982ACC13F
:100CA00089810E9425069F878E878981682F70E041
:100CB0008981882F90E0880F991F0196880F991FCE
:100CC000880F991FFC01E456FE4F2081318142813B
:100CD0005381CB01880F991F880F991F880F991F87
:100CE0008C0104561E4FCA01B9010E949103F801FC
:100CF0002083F8013183F8014283F8015383F8011E
:100D00006483F8017583F8018683F80197838981EC
:100D1000082F10E08981882F90E0880F991F019695
:100D2000880F991FFC01EC55FE4F2081318189818C
:100D3000B9010E9492089B01AC01C801880F991F5C
:100D4000880F991FFC01EC55FE4F208331834283AD
:100D500053838981882F90E0880F991F880F991FEE
:100D6000880F991FFC01E456FE4F80819181A2817A
:100D7000B381BC01CD010E947503DC01CB018A87E0
:100D80009B87AC87BD878981882F90E0880F991F4A
:100D9000880F991FFC01EC55FE4F80819181CC0199
:100DA000A0E0B0E0BC01CD010E940C0DDC01CB0144
:100DB000BC01CD0120E030E040E052E40E94AC0BE9
:100DC000DC01CB01BC01CD012A853B854C855D85CD
:100DD0000E94AC0BDC01CB01BC01CD0120E030E670
:100DE0004AE657E40E94B20ADC01CB018A839B8366
:100DF000AC83BD83EE85FF8582859385A485B5850B
:100E0000BC01CD0126E636E646E25FE30E94B20A67
:100E1000DC01CB017C018D01EE85FF8526813781C8
:100E2000408551856A817B818C819D810E94540A15
:100E3000DC01CB01BC01CD0123E333E343EB5EE3F3
:100E40000E94B20ADC01CB019C01AD01C801B701CF
:100E50000E94850ADC01CB01EE85FF85828793879E
:100E6000A487B587EE85FF8580819181CC01A0E0C4
:100E7000B0E0BC01CD010E940C0DDC01CB01BC0136
:100E8000CD012A813B814C815D810E94540ADC01A5
:100E9000CB01BC01CD012FE832EC45E75CE30E94B9
:100EA000B20ADC01CB017C018D01EE85FF858285D4
:100EB0009385A485B585BC01CD012AE939E949E1CD
:100EC0005EEB0E94B20ADC01CB019C01AD01C801BE
:100ED000B7010E94850ADC01CB018E839F83A8871E
:100EE000B987EE85FF8586859785A089B189B05839
:100EF000BC01CD012E813F81488559850E94580C47
:100F000018165CF4EE85FF8580E090E0A0E0B0E08C
:100F100086879787A08BB18B3BC0EE85FF85868542
:100F20009785A089B189BC01CD012E813F8148857B
:100F300059850E94850ADC01CB01BC01CD0120E06E
:100F400030EC4FE754E40E94580C18165CF4EE8520
:100F5000FF8580E090ECAFE7B4E486879787A08BAD
:100F6000B18B16C0EE85FF8586859785A089B189EE
:100F7000BC01CD012E813F81488559850E94850A9B
:100F8000DC01CB01EE85FF8586879787A08BB18B2F
:100F9000EE85FF8580819181009751F4EE85FF8574
:100FA00080E090E0A0E0B0E086879787A08BB18BCF
:100FB000EE85FF8586859785A089B189BC01CD0125
:100FC0000E94E210DC01CB01BC01CD010E94DC08D3
:100FD000DC01CB019C018981B9010E944703EE85A8
:100FE000FF858A819B81AC81BD8186839783A087A1
:100FF000B18789818F5F89838981882309F450CEE5
:101000002F960FB6F894DEBF0FBECDBFCF91DF9104
:101010001F910F91FF90EF90089578941F920F9277
:101020000FB60F9211242F933F934F935F936F93BB
:101030007F938F939F93AF93BF93EF93FF93DF9330
:10104000CF9300D0CDB7DEB780E00E9481089A83AD
:101050008983E981FA81808191810196E981FA8110
:10106000918380830F900F90CF91DF91FF91EF914B
:10107000BF91AF919F918F917F916F915F914F91B0
:101080003F912F910F900FBE0F901F90189578945D
:101090001F920F920FB60F9211242F933F934F93ED
:1010A0005F936F937F938F939F93AF93BF93EF93D0
:1010B000FF93DF93CF9300D0CDB7DEB781E00E94DE
:1010C00081089A838983E981FA81808191810196DF
:1010D000E981FA81918380830F900F90CF91DF9106
:1010E000FF91EF91BF91AF919F918F917F916F9100
:1010F0005F914F913F912F910F900FBE0F901F90D6
:101100001895DF93CF930F92CDB7DEB7898389818E
:10111000882F90E0880F991F88559E4F0F90CF9190
:10112000DF910895DF93CF93CDB7DEB729970FB640
:10113000F894DEBF0FBECDBF8F83798768878F811C
:101140000E9481089A838983E981FA812081318113
:10115000888599852817390768F0E981FA81208107
:10116000318188859985A901481B590BCA019C8347
:101170008B830DC0888599859C0120953095E981E8
:10118000FA8180819181820F931F9C838B83E981F7
:10119000FA81808191819E838D838B819C81AD8139
:1011A000BE81BC01CD0129960FB6F894DEBF0FBEFB
:1011B000CDBFCF91DF910895EF92FF920F931F93D0
:1011C0007B018C0120E030E040E05FE40E94880C6D
:1011D00088238CF0C801B70120E030E040E05FE4F4
:1011E0000E94540A0E94B80C9B01AC012050304070
:1011F0004040504806C0C801B7010E94B80C9B018E
:10120000AC01B901CA011F910F91FF90EF900895B1
:10121000A0E0B0E0EEE0F9E00C947A0FDC012B01E5
:10122000FA019C91923008F439C1EB018881823037
:1012300008F433C1943069F4843009F02FC1119659
:101240009C9111978981981709F428C1A2E6B0E012
:1012500025C1843009F421C18230A9F4923009F00B
:101260001DC19A01AD0188E0EA010990AE01E901D2
:1012700009929E018150C1F7E201898111969C91EA
:101280008923818308C1923009F407C112962D90F9
:101290003C901397EB018A819B811496AD90BD9091
:1012A000CD90DC901797EC80FD800E811F8191011D
:1012B000281B390BB90137FF04C066277727621B4B
:1012C000730B603271050CF061C0121613066CF5D9
:1012D00037014801062E04C096948794779467944A
:1012E0000A94D2F721E030E040E050E004C0220F41
:1012F000331F441F551F6A95D2F72150304040409C
:1013000050402E213F214023512321153105410515
:10131000510521F021E030E040E050E079018A0100
:10132000E628F728082919293CC0232BD1F1260EDD
:10133000371E35014601062E04C096948794779493
:1013400067940A94D2F721E030E040E050E004C016
:10135000220F331F441F551F6A95D2F7215030408A
:10136000404050402A213B214C215D21211531056F
:101370004105510521F021E030E040E050E0590105
:101380006A01A628B728C828D9280BC0821593055A
:101390002CF01C01AA24BB24650103C0EE24FF2409
:1013A000870111969C91D20111968C91981709F49E
:1013B00045C0992339F0A80197012A193B094C0926
:1013C0005D0906C0A60195012E193F09400B510B7E
:1013D00057FD08C0118233822282248335834683DD
:1013E00057831DC081E08183338222828827992719
:1013F000DC01821B930BA40BB50B84839583A6831E
:10140000B7830DC0220F331F441F551F248335831C
:1014100046835783828193810197938382832481BA
:10142000358146815781DA01C9010197A109B109C6
:101430008F5F9F4FAF4FBF4328F30BC09183338221
:101440002282EA0CFB1C0C1D1D1DE482F582068322
:10145000178383E08083248135814681578157FF3C
:101460001AC0C901AA2797FDA095BA2F8170907064
:10147000A070B0705695479537952795822B932B82
:10148000A42BB52B84839583A683B7838281938114
:10149000019693838283DF0101C0D201CD01CDB7D4
:1014A000DEB7E2E10C94960FA0E2B0E0EAE5FAE0E4
:1014B0000C94860F69837A838B839C832D833E8370
:1014C0004F835887E9E0EE2EF12CEC0EFD1ECE0185
:1014D0000196B7010E94A90E8E010F5E1F4FCE012B
:1014E0000596B8010E94A90E8A8991E089278A8B06
:1014F000C701B801AE01475E5F4F0E9408090E9414
:10150000D40DA096E6E00C94A20FA0E2B0E0EBE8C8
:10151000FAE00C94860F69837A838B839C832D83F6
:101520003E834F835887F9E0EF2EF12CEC0EFD1E21
:10153000CE010196B7010E94A90E8E010F5E1F4FCA
:10154000CE010596B8010E94A90EC701B801AE01EF
:10155000475E5F4F0E9408090E94D40DA096E6E006
:101560000C94A20FA0E2B0E0E8EBFAE00C947A0F42
:1015700069837A838B839C832D833E834F83588733
:10158000CE010196BE01675F7F4F0E94A90ECE017A
:101590000596BE016F5E7F4F0E94A90E998592301D
:1015A00088F089898230C8F0943019F4823051F47F
:1015B00004C0843029F4923081F482E690E0C6C001
:1015C000923049F420E09A858A89981321E02A878D
:1015D000CE010996BBC0823049F420E09A858A8901
:1015E000981321E02A8BCE014196B0C02D843E8411
:1015F0004F8458886D887E888F88988CEE24FF24CD
:101600008701AA24BB24650140E050E060E070E05F
:10161000E0E0F0E0C10181709070892BE9F0E60C08
:10162000F71C081D191D9A01AB012A0D3B1D4C1D0D
:101630005D1D80E090E0A0E0B0E0E614F70408054E
:10164000190520F481E090E0A0E0B0E0BA01A90122
:10165000480F591F6A1F7B1FAA0CBB1CCC1CDD1C2A
:1016600097FE08C081E090E0A0E0B0E0A82AB92A87
:10167000CA2ADB2A3196E032F10549F0660C771C64
:10168000881C991C5694479437942794C3CFFA85A5
:10169000EA892B893C898B859C85280F391F2E5F11
:1016A0003F4F17C0CA0181709070892B61F0169569
:1016B0000795F794E79480E090E0A0E0B0E8E82A8E
:1016C000F92A0A2B1B2B76956795579547952F5F1F
:1016D0003F4F77FDE7CF0CC0440F551F661F771FA4
:1016E00017FD4160EE0CFF1C001F111F2150304000
:1016F000403090E0590790E0690790E4790760F383
:101700002B8F3C8FDB01CA018F779070A070B07077
:1017100080349105A105B10561F447FD0AC0E114CB
:10172000F1040105110529F0405C5F4F6F4F7F4FB9
:1017300040781A8EFE1711F081E08A8F4D8F5E8FF0
:101740006F8F78A383E0898FCE0149960E94D40DD4
:10175000A096E2E10C94960FA8E1B0E0E2EBFBE08A
:101760000C94820F69837A838B839C832D833E83C1
:101770004F835887B9E0EB2EF12CEC0EFD1ECE0105
:101780000196B7010E94A90E8E010F5E1F4FCE0178
:101790000596B8010E94A90E2985223008F47EC062
:1017A0003989323010F4B8017CC08A859A8989273A
:1017B0008A87243011F0223031F4231709F06EC0EB
:1017C00062E670E06EC0343039F41D861E861F86D6
:1017D000188A1C861B8604C0323021F484E0898775
:1017E000B7015FC02B853C858B899C89281B390BF1
:1017F0003C872B87ED84FE840F851889AD88BE88D1
:10180000CF88D88CEA14FB040C051D0540F4EE0CBF
:10181000FF1C001F111F215030403C872B8720E008
:1018200030E040E050E080E090E0A0E0B0E460E034
:1018300070E0EA14FB040C051D0540F0282B392B41
:101840004A2B5B2BEA18FB080C091D09B695A795D6
:1018500097958795EE0CFF1C001F111F6F5F7F4F40
:101860006F31710531F7DA01C9018F779070A0707F
:10187000B07080349105A105B10561F427FD0AC05F
:10188000E114F1040105110529F0205C3F4F4F4F91
:101890005F4F20782D873E874F87588BBE01675F4B
:1018A0007F4FCB010E94D40D6896EAE00C949E0F06
:1018B000A8E1B0E0EEE5FCE00C94860F69837A8342
:1018C0008B839C832D833E834F83588789E0E82E4A
:1018D000F12CEC0EFD1ECE010196B7010E94A90E5F
:1018E0008E010F5E1F4FCE010596B8010E94A90E12
:1018F0008985823040F08989823028F0C701B8019B
:101900000E94210F01C08FEF6896E6E00C94A20FB1
:10191000A8E1B0E0EEE8FCE00C94860F69837A83DE
:101920008B839C832D833E834F83588789E0E82EE9
:10193000F12CEC0EFD1ECE010196B7010E94A90EFE
:101940008E010F5E1F4FCE010596B8010E94A90EB1
:101950008985823040F08989823028F0C701B8013A
:101960000E94210F01C08FEF6896E6E00C94A20F51
:10197000ACE0B0E0EEEBFCE00C948A0F69837A8374
:101980008B839C83CE010196BE016B5F7F4F0E94CB
:10199000A90E8D81823061F1823050F1843021F4C2
:1019A0008E81882351F12EC02F81388537FD20C0CC
:1019B0006E812F3131051CF06623F9F023C08EE1D2
:1019C00090E0821B930B29853A854B855C8504C08A
:1019D00056954795379527958A95D2F76623B1F0A6
:1019E00050954095309521953F4F4F4F5F4F0EC01A
:1019F00020E030E040E050E009C02FEF3FEF4FEF34
:101A00005FE704C020E030E040E050E8B901CA01DF
:101A10002C96E2E00C94A60FA8E0B0E0E2E1FDE035
:101A20000C94820F7B018C01611571058105910574
:101A300019F482E0898360C083E089838EE1C82E37
:101A4000D12CDC82CB82ED82FE820F831887C80105
:101A5000B7010E94850DFC013197F7FF3BC022279B
:101A600033272E1B3F0B57016801022E04C0D6946A
:101A7000C794B794A7940A94D2F740E050E060E08E
:101A800070E081E090E0A0E0B0E004C0880F991F12
:101A9000AA1FBB1F2A95D2F70197A109B1098E2170
:101AA0009F21A023B1230097A105B10521F041E0BA
:101AB00050E060E070E04A295B296C297D294D8364
:101AC0005E836F8378878EE190E08E1B9F0B9C83F3
:101AD0008B8312C0309781F00E2E04C0EE0CFF1CD9
:101AE000001F111F0A94D2F7ED82FE820F83188720
:101AF000CE1ADF0ADC82CB821A82CE0101960E94C6
:101B0000D40D2896EAE00C949E0FEF92FF920F936B
:101B10001F937B018C0180E0E81680E0F80681E0ED
:101B2000080780E0180788F48FEFE816F104010534
:101B3000110531F028F088E090E0A0E0B0E017C097
:101B400080E090E0A0E0B0E012C080E0E81680E025
:101B5000F80680E0080781E0180728F088E190E0A7
:101B6000A0E0B0E004C080E190E0A0E0B0E020E2BE
:101B700030E040E050E0281B390B4A0B5B0B04C0FF
:101B800016950795F794E7948A95D2F7F701E659E9
:101B9000FF4F8081281B310941095109C9011F915B
:101BA0000F91FF90EF900895DF92EF92FF920F93C5
:101BB0001F93FC01E480F58006811781D18080812C
:101BC000823048F480E090E0A0E1B0E0E82AF92A11
:101BD0000A2B1B2BA5C0843009F49FC0823021F44E
:101BE000EE24FF24870105C0E114F104010511056D
:101BF00019F4E0E0F0E096C0628173819FEF6238F3
:101C000079070CF05BC022E83FEF261B370B2A3127
:101C100031052CF020E030E040E050E02AC0B8016F
:101C2000A701022E04C076956795579547950A94AB
:101C3000D2F781E090E0A0E0B0E004C0880F991FE7
:101C4000AA1FBB1F2A95D2F70197A109B1098E21BE
:101C50009F21A023B1230097A105B10521F081E0C8
:101C600090E0A0E0B0E09A01AB01282B392B4A2B81
:101C70005B2BDA01C9018F779070A070B07080344F
:101C80009105A105B10539F427FF09C0205C3F4F3C
:101C90004F4F5F4F04C0215C3F4F4F4F5F4FE0E01D
:101CA000F0E02030A0E03A07A0E04A07A0E45A079D
:101CB00010F0E1E0F0E079018A0127C06038710599
:101CC00064F5FB01E158FF4FD801C7018F77907091
:101CD000A070B07080349105A105B10539F4E7FE1C
:101CE0000DC080E490E0A0E0B0E004C08FE390E09D
:101CF000A0E0B0E0E80EF91E0A1F1B1F17FF05C089
:101D000016950795F794E794319687E01695079511
:101D1000F794E7948A95D1F705C0EE24FF24870154
:101D2000EFEFF0E06E2F679566276795902F9F770E
:101D3000D794DD24D7948E2F8695492F462B582F84
:101D40005D29B701CA011F910F91FF90EF90DF90BD
:101D50000895FC01DB01408151812281622F6F7760
:101D600070E0221F2227221F9381892F880F822B48
:101D7000282F30E0991F9927991F11969C9311974E
:101D800021153105A9F5411551056105710511F4BC
:101D900082E037C082E89FEF13969C938E93129750
:101DA0009A01AB0167E0220F331F441F551F6A954C
:101DB000D1F783E08C930DC0220F331F441F551FB2
:101DC00012968D919C911397019713969C938E93E5
:101DD0001297203080E0380780E0480780E45807F9
:101DE00058F314962D933D934D935C931797089554
:101DF0002F3F310579F4411551056105710519F43D
:101E000084E08C93089564FF03C081E08C9312C03A
:101E10001C9210C02F57304013963C932E9312976C
:101E200083E08C9387E0440F551F661F771F8A95C8
:101E3000D1F7706414964D935D936D937C931797CF
:101E400008951F93DC01FB019C91923008F447C078
:101E50008081823008F443C0943051F411961C9173
:101E6000843099F58181682F70E0611B71093FC052
:101E7000843021F0923031F48230B9F181818823AD
:101E800089F12DC011961C9111978230F1F081815A
:101E90001817D9F412962D913C9113978281938152
:101EA0008217930794F028173907BCF014968D9188
:101EB0009D910D90BC91A02D248135814681578143
:101EC000281739074A075B0718F4112341F00AC0A5
:101ED00082179307A407B50740F4112319F061E0B6
:101EE00070E005C06FEF7FEF02C060E070E0CB01F3
:101EF0001F9108952F923F924F925F926F927F921F
:101F00008F929F92AF92BF92CF92DF92EF92FF9209
:101F10000F931F93CF93DF93CDB7DEB7CA1BDB0BB5
:101F20000FB6F894DEBF0FBECDBF09942A8839885A
:101F300048885F846E847D848C849B84AA84B98461
:101F4000C884DF80EE80FD800C811B81AA81B9816D
:101F5000CE0FD11D0FB6F894DEBF0FBECDBFED0181
:101F600008950F931F93CF93DF93689F8001699F1C
:101F7000100D789F100D1124C8010E94CD0FEC01A7
:101F8000009729F060E070E0A8010E94DB10CE010C
:101F9000DF91CF911F910F910895CF93DF93BC01F3
:101FA0008230910510F462E070E0A091CF01B09111
:101FB000D001ED01E0E0F0E040E050E021C0888198
:101FC00099818617970769F48A819B81309719F068
:101FD0009383828304C09093D0018093CF01FE014C
:101FE00034C06817790738F44115510519F0841782
:101FF000950708F4AC01FE018A819B819C01E901EF
:102000002097E9F641155105A9F1CA01861B970BE6
:10201000049708F4BA01E0E0F0E02AC08D919C91A9
:10202000119784179507F9F46417750781F41296D0
:102030008D919C911397309719F09383828304C0FC
:102040009093D0018093CF01FD0132964FC0CA0119
:10205000861B970BFD01E80FF91F6193719302979F
:102060008D939C9343C0FD01828193819C01D90192
:102070001097A1F68091CD019091CE01892B41F46A
:1020800080916C0190916D019093CE018093CD0170
:1020900040916E0150916F014115510541F44DB7CA
:1020A0005EB780916A0190916B01481B590B20919A
:1020B000CD013091CE0124173507B0F4CA01821B3F
:1020C000930B8617970780F0AB014E5F5F4F841725
:1020D000950750F0420F531F5093CE014093CD010E
:1020E000F9016193719302C0E0E0F0E0CF01DF916C
:1020F000CF910895CF93DF93009709F450C0EC017E
:1021000022971B821A82A091CF01B091D001109723
:1021100009F140E050E0AC17BD0708F1BB83AA838A
:10212000FE0121913191E20FF31FAE17BF0779F441
:102130008D919C911197280F391F2E5F3F4F398346
:10214000288312968D919C9113979B838A834115C6
:10215000510571F4D093D001C093CF0120C01296E5
:102160008D919C911397AD01009711F0DC01D3CFB5
:10217000FA01D383C28321913191E20FF31FCE176D
:10218000DF0769F488819981280F391F2E5F3F4F3F
:10219000FA01318320838A819B8193838283DF913B
:1021A000CF910895FB01DC0102C001900D924150D6
:1021B0005040D8F70895DC0101C06D934150504064
:1021C000E0F708953BD080F09F3740F491110EF076
:1021D0004DC060E070E080E89FEB089526F41B1688
:1021E000611D711D811D01C01BC0882371F47723FF
:1021F00021F09850872B762F07C0662311F499277A
:102200000DC09051862B70E060E02AF09A95660F21
:10221000771F881FDAF7880F9695879597F90895A5
:102220009F3F31F0915020F4879577956795B7954A
:10223000880F911D9695879597F9089525D0A0F060
:10224000BEE7B91788F4BB279F3860F41616B11D96
:10225000672F782F8827985FF7CF869577956795B2
:10226000B11D93959639C8F30895E894BB27662766
:102270007727CB0197F9089557FD9058440F551FC4
:1022800059F05F3F71F04795880F97FB991F61F0F8
:102290009F3F79F087950895121613061406551F6F
:1022A000F2CF4695F1DF08C0161617061806991FDB
:1022B000F1CF86957105610508940895F894FFCFD4
:1022C000FFFF000000000000000000010202030305
:1022D00003030404040404040404050505050505BA
:1022E0000505050505050505050506060606060698
:1022F000060606060606060606060606060606067E
:102300000606060606060606060607070707070767
:10231000070707070707070707070707070707074D
:10232000070707070707070707070707070707073D
:10233000070707070707070707070707070707072D
:102340000707070707070707070708080808080817
:1023500008080808080808080808080808080808FD
:1023600008080808080808080808080808080808ED
:1023700008080808080808080808080808080808DD
:1023800008080808080808080808080808080808CD
:1023900008080808080808080808080808080808BD
:1023A00008080808080808080808080808080808AD
:1023B000080808080808080808080808080808089D
:1023C000080808080808080808082000D1010000CB
:00000001FF
