:100000000C9439000C9402090C944E090C9456007F
:100010000C9456000C94190F0C9456000C94560036
:100020000C9456000C9456000C9456000C945600F8
:100030000C9456000C9406110C9456000C94560027
:100040000C94E4090C9456000C9456000C94560041
:100050000C945600216672616D696E675F657272FD
:100060006F720A00216275666665725F66756C6CF8
:100070000A0011241FBECFE5D8E0DEBFCDBF11E0DE
:10008000A0E6B0E0EAEFF5E302C005900D92A638D5
:10009000B107D9F712E0A6E8B1E001C01D92A43182
:1000A000B107E1F70E9411020C94FB1A0C940000B6
:1000B000EF92FF920F931F93DF93CF93CDB7DEB7ED
:1000C00060970FB6F894DEBF0FBECDBFEB82FC8207
:1000D0000D831E832F83388749875A876B877C87D8
:1000E0008D879E87CE01039602969A8389838C81A1
:1000F000282F30E0388B2F878F85988981319105A3
:1001000079F02F8538892132310579F08F859889EA
:100110008031910579F489819A810E94AB000EC0EB
:1001200089819A810E94DE0009C089819A810E949A
:10013000EF0004C083E060E00E940B0C60960FB6F5
:10014000F894DEBF0FBECDBFCF91DF911F910F910D
:10015000FF90EF900895DF93CF9300D000D00F92DF
:10016000CDB7DEB79D838C83EC81FD8180818B834D
:100170008C819D81FC0131968081882F90E0982FA1
:1001800088279A8389838C819D81FC0132968081A6
:10019000282F30E089819A81820F931F9A83898367
:1001A00029813A818B81B9010E94750D0F900F90C2
:1001B0000F900F900F90CF91DF910895DF93CF9321
:1001C00000D0CDB7DEB79A838983E981FA81808137
:1001D0000E945C0D0F900F90CF91DF910895DF93F7
:1001E000CF9300D000D000D0CDB7DEB79E838D83F3
:1001F000ED81FE818081882F90E0982F88279C8355
:100200008B838D819E81FC0131968081282F30E087
:100210008B819C81820F931F9C838B838D819E8118
:10022000FC0132968081882F90E0982F88279A834E
:1002300089838D819E81FC0133968081282F30E057
:1002400089819A81820F931F9A8389838B819C81F4
:10025000805197429C838B8389819A8180519742F8
:100260009A8389832B813C8180E0B9010E947F05BC
:1002700029813A8181E0B9010E947F0526960FB657
:10028000F894DEBF0FBECDBFCF91DF910895DF930D
:10029000CF93CDB7DEB786E891E0CF91DF91089597
:1002A000EF92FF920F931F93DF93CF93CDB7DEB7FB
:1002B0002E970FB6F894DEBF0FBECDBF9E878D87F9
:1002C00080E28A838D859E85892F99278B838D85F2
:1002D0008C8383E08C87E980FA800B811C812D81DF
:1002E0003E814F81588569857A858B859C850E94E2
:1002F0003E0C2E960FB6F894DEBF0FBECDBFCF9149
:10030000DF911F910F91FF90EF900895EF92FF9270
:100310000F931F93DF93CF93CDB7DEB72F970FB611
:10032000F894DEBF0FBECDBF8D877F876E8780E3D9
:100330008A838D858B838E859F85892F99278C83D2
:100340008E858D8384E08C87E980FA800B811C8107
:100350002D813E814F81588569857A858B859C8565
:100360000E943E0C2F960FB6F894DEBF0FBECDBF95
:10037000CF91DF911F910F91FF90EF900895EF9231
:10038000FF920F931F93DF93CF93CDB7DEB76397A1
:100390000FB6F894DEBF0FBECDBF8D877F876E8707
:1003A000598B488B3B8B2A8B82E38A838D858B8389
:1003B0008E859F85892F99278C838E858D8388894B
:1003C0009989892F99278E8388898F838A899B8928
:1003D000892F992788878A89898788E08C87E9808F
:1003E000FA800B811C812D813E814F815885698562
:1003F0007A858B859C850E943E0C63960FB6F89497
:10040000DEBF0FBECDBFCF91DF911F910F91FF9047
:10041000EF900895DF93CF93CDB7DEB7CF91DF9103
:100420000895EF92FF920F931F93DF93CF93CDB771
:10043000DEB7E9970FB6F894DEBF0FBECDBF8FE8E9
:100440008C8782EC8D8785E88E878FEB8F87CE0136
:1004500040969E01245F3F4FB90144E050E00E9466
:10046000661AE4E3F0E08BED8083E5E3F0E087EEED
:1004700080830E94BF0C9A8789870E94040F1D8287
:100480001E821F82188619821A821B821C820E9479
:10049000AD100E941F0580E060E070E00E947F05C3
:1004A00081E060E070E00E947F050E94FE09789480
:1004B0000E940B0D8B878B85882329F082E06B854A
:1004C0000E940B0CF5CFE985FA858281882341F1E2
:1004D0001B86CE0144960E94C40B89859A850E9492
:1004E000EE0E8B878B85882329F081E06B850E9437
:1004F0000B0CDECFEC88FD880E891F89288D398D85
:100500004A8D5B8D6C8D7D8D8E8D9F8D0E945800E8
:100510000E946C0FDC01CB0189839A83AB83BC837F
:100520008D819E81AF81B885BC01CD010E94A30F52
:1005300028A739A74AA75BA76CA77DA78EA79FA767
:10054000CE01809699AB88ABFE01B896FBABEAABC7
:10055000F8E0FCABEAA9FBA900808AA99BA9019657
:100560009BAB8AABE8A9F9A9008288A999A9019651
:1005700099AB88AB9CA991509CABECA9EE2351F7A9
:1005800088A199A1AAA1BBA1BC01CD010E945B10C9
:10059000DC01CB01BC01CD0120E030E040EA51E4B8
:1005A0000E945E15181664F48CA19DA1AEA1BFA196
:1005B0008D839E83AF83B8870E94BB050E94300362
:1005C00089819A81AB81BC81BC01CD010E94A30FBE
:1005D00028A739A74AA75BA76CA77DA78EA79FA7C7
:1005E000CE0180969EAB8DABFE01B896F8AFEFAB17
:1005F000F8E0F9AFEFA9F8AD00808FA998AD0196AA
:1006000098AF8FABEDA9FEA900828DA99EA9019696
:100610009EAB8DAB99AD915099AFE9ADEE2351F7FB
:1006200088A199A1AAA1BBA1BC01CD010E945B1028
:10063000DC01CB01BC01CD0120E030E04AEF53E406
:100640000E945E1518160CF033CF80E060E070E079
:100650000E947F0581E060E070E00E947F0528CF66
:10066000EF92FF920F931F93DF93CF93CDB7DEB737
:1006700064970FB6F894DEBF0FBECDBF80E00E9436
:100680009C059C838B8381E00E949C059A838983CF
:100690008091910190919201A0919301B091940168
:1006A000BC01CD0126E636E646E65FE30E94B813BC
:1006B000DC01CB017C018D0181E00E94130ACC0199
:1006C000A0E0B0E0BC01CD010E94A016DC01CB018E
:1006D000BC01CD0120E030E040EA5BE30E94B813AA
:1006E000DC01CB01BC01CD0120E030E04AE754E45D
:1006F0000E94B813DC01CB01BC01CD012EEA37E426
:1007000041EB50E40E94B813DC01CB01BC01CD01E8
:100710002DEC3CEC4CEC5DE30E94B813DC01CB010A
:100720009C01AD01C801B7010E948B13DC01CB0114
:100730008093910190939201A0939301B0939401BF
:1007400080918D0190918E01A0918F01B0919001C7
:10075000BC01CD0128E431EE4AE75FE30E94B81303
:10076000DC01CB017C018D0187E00E94130ACC01E2
:10077000A0E0B0E0BC01CD010E94A016DC01CB01DD
:10078000BC01CD012AE939E941EF52E40E94B214DB
:10079000DC01CB01BC01CD012AE037ED43EA5CE38B
:1007A0000E94B813DC01CB019C01AD01C801B70167
:1007B0000E948B13DC01CB0180938D0190938E01FD
:1007C000A0938F01B09390018091890190918A014B
:1007D000A0918B01B0918C01BC01CD0128E431EED8
:1007E0004AE75FE30E94B813DC01CB017C018D0175
:1007F00086E00E94130ACC01A0E0B0E0BC01CD016C
:100800000E94A016DC01CB01BC01CD012AE939E927
:1008100041EF52E40E94B214DC01CB01BC01CD01D6
:100820002AE037ED43EA5CE30E94B813DC01CB0118
:100830009C01AD01C801B7010E948B13DC01CB0103
:100840008093890190938A01A0938B01B0938C01CE
:10085000809188018F5F80938801809188018A3020
:1008600010F01092880180918801833009F05DC0FA
:10087000EB81FC8182819381A481B581BC01CD0192
:100880000E944C16DC01CB019C8B8B8B8B899C8945
:1008900099233CF48B899C89909581959F4F9C8BE3
:1008A0008B8B8B899C899A8B898B80918D01909100
:1008B0008E01A0918F01B091900120919101309112
:1008C00092014091930150919401BC01CD010E948D
:1008D000B813DC01CB01BC01CD010E94E211DC01A7
:1008E000CB01988B8F87EB81FC8186859785A089CA
:1008F000B189BC01CD010E944C16DC01CB019E8761
:100900008D878D859E8599233CF48D859E85909558
:1009100081959F4F9E878D872D853E858CE46989C3
:100920007A894F8558890E94BF018091880186305D
:1009300009F05DC0E981FA8182819381A481B5814A
:10094000BC01CD010E944C16DC01CB019C878B873A
:100950008B859C8599233CF48B859C85909581950E
:100960009F4F9C878B878B859C859A8789878091F1
:10097000890190918A01A0918B01B0918C01209105
:100980009101309192014091930150919401BC01E9
:10099000CD010E94B813DC01CB01BC01CD010E9446
:1009A000E211DC01CB0198878F83E981FA8186858A
:1009B0009785A089B189BC01CD010E944C16DC014C
:1009C000CB019E838D838D819E8199233CF48D8103
:1009D0009E81909581959F4F9E838D832D813E8131
:1009E00082E569857A854F8158850E94BF01809193
:1009F00088018930B9F48091910190919201A09180
:100A00009301B0919401BC01CD010E94E211DC017F
:100A1000CB019C018DE4B90140E050E020E030E0E2
:100A20000E94BF0164960FB6F894DEBF0FBECDBF23
:100A3000CF91DF911F910F91FF90EF900895DF9379
:100A4000CF9300D00F92CDB7DEB7A5E5B0E0E5E5D6
:100A5000F0E080818A608C93ABE5B0E0EBE5F0E0FC
:100A60008081806C8C930E94380D83E00E945C0D25
:100A700019823CC089810E949C059B838A83EA81FC
:100A8000FB8111821082EA81FB8180E090E0A0E08E
:100A9000B0E082839383A483B583EA81FB8180E005
:100AA00090E0A0E0B0E086839783A087B187EA81D9
:100AB000FB8180E090E0A0E0B0E082879387A4878C
:100AC000B587EA81FB8180E090E0A0E0B0E0868716
:100AD0009787A08BB18BEA81FB8181E0828BEA81D1
:100AE000FB81148A138A89818F5F8983898182308F
:100AF00008F20F900F900F90CF91DF910895DF9340
:100B0000CF9300D000D00F92CDB7DEB78B837D831B
:100B10006C838B810E949C059A838983E981FA8189
:100B20008C819D81918380830F900F900F900F9007
:100B30000F90CF91DF910895DF93CF930F92CDB7B0
:100B4000DEB789838981282F30E0C901880F991F7A
:100B5000820F931F9C01220F331F220F331F220F7E
:100B6000331FA901481B590BCA018B569E4F0F908A
:100B7000CF91DF910895AF92BF92CF92DF92EF9223
:100B8000FF920F931F93DF93CF93CDB7DEB7649798
:100B90000FB6F894DEBF0FBECDBF1C82BFC28C81E2
:100BA0000E949C059A8B898BE989FA8980819181C1
:100BB0009A838983E989FA8980819181AA2797FD9F
:100BC000A095BA2FBC01CD010E94EE15DC01CB012E
:100BD000E989FA892281338144815581BC01CD01A3
:100BE0000E945E1518160CF03EC0E989FA898081D2
:100BF0009181AA2797FDA095BA2FBC01CD010E9433
:100C0000EE15DC01CB01E989FA8922813381448127
:100C10005581BC01CD010E945A13DC01CB01BC01FE
:100C2000CD0120E030E04FE254E40E945E1518163A
:100C30000CF070C0E989FA8982819381A481B58121
:100C4000BC01CD0120E030E04FE254E40E948B1360
:100C5000DC01CB01BC01CD010E944C16DC01CB01B3
:100C60009A83898357C0E989FA8980819181AA276B
:100C700097FDA095BA2FBC01CD010E94EE15DC01B5
:100C8000CB01E989FA892281338144815581BC01F4
:100C9000CD010E94BE1588230CF03CC0E989FA8979
:100CA000E280F38004811581E989FA89808191814C
:100CB000AA2797FDA095BA2FBC01CD010E94EE1581
:100CC0009B01AC01C801B7010E945A13DC01CB01A2
:100CD000BC01CD0120E030E04FE254E40E945E15FB
:100CE0001816C4F4E989FA8982819381A481B581B7
:100CF000BC01CD0120E030E04FE254E40E945A13E1
:100D0000DC01CB01BC01CD010E944C16DC01CB0102
:100D10009A8389838C81682F70E08C81882F90E082
:100D2000880F991F0196880F991F880F991FFC0142
:100D3000E154FE4F2081318142815381CB01880FE4
:100D4000991F880F991F880F991F8C0101541E4FFE
:100D5000CA01B9010E94A30FF8012083F801318371
:100D6000F8014283F8015383F8016483F801758325
:100D7000F8018683F80197838C81082F10E08C811D
:100D8000882F90E0880F991F0196880F991FFC010A
:100D9000E153FE4F208131818C81B9010E949A0973
:100DA0009B01AC01C801880F991F880F991FFC0196
:100DB000E153FE4F20833183428353838C81882FFC
:100DC00090E0880F991F880F991F880F991FFC01C9
:100DD000E154FE4F80819181A281B381BC01CD019C
:100DE0000E945B10DC01CB018D879E87AF87B88B9B
:100DF0008C81882F90E0880F991F880F991FFC0124
:100E0000E153FE4F80819181CC01A0E0B0E0BC01B4
:100E1000CD010E94A016DC01CB01BC01CD0120E078
:100E200030E040E851E40E94B214DC01CB01BC0187
:100E3000CD012D853E854F8558890E94B214DC0175
:100E4000CB01BC01CD0120E030E64AE657E40E9428
:100E5000B813DC01CB018D839E83AF83B887E9890A
:100E6000FA898289992787FD9095A92FB92FBC010E
:100E7000CD010E94EE159B01AC016D817E818F81B9
:100E800098850E94B813DC01CB018D839E83AF83CC
:100E9000B887E989FA89E284F3840485158582E0BC
:100EA0000E94C8119B01AC0160E070E080E89FE304
:100EB0000E945A13DC01CB019C01AD01C801B701AE
:100EC0000E94B813DC01CB015C016D01E989FA894C
:100ED00026813781408551856D817E818F819885FE
:100EE0000E945A13DC01CB017C018D0182E00E943B
:100EF000C8119B01AC01C801B7010E94B813DC0105
:100F0000CB019C01AD01C601B5010E948B13DC0130
:100F1000CB01E989FA8982879387A487B58789817C
:100F20009A81AA2797FDA095BA2FBC01CD010E94F6
:100F3000EE15DC01CB01BC01CD012D813E814F813D
:100F400058850E945A13DC01CB017C018D0180E0A1
:100F50000E94C8119B01AC01C801B7010E94B813DF
:100F6000DC01CB015C016D01E989FA89E284F3843B
:100F70000485158581E00E94C8119B01AC01C80160
:100F8000B7010E94B813DC01CB019C01AD01C60181
:100F9000B5010E945A13DC01CB0189879A87AB8780
:100FA000BC87E989FA8986859785A089B189BC01C2
:100FB000CD0129853A854B855C850E948B13DC0128
:100FC000CB01E989FA8986879787A08BB18BE9895C
:100FD000FA8986859785A089B189BC01CD0120E079
:100FE00030EC4FE754E40E945E15181654F4E9897A
:100FF000FA8980E090ECAFE7B4E486879787A08B0E
:10100000B18BE989FA8986859785A089B189BC0168
:10101000CD0120E030EC4FE754EC0E94BE15882350
:1010200054F4E989FA8980E090ECAFE7B4EC868764
:101030009787A08BB18B89819A81009751F4E989B8
:10104000FA8980E090E0A0E0B0E086879787A08BE7
:10105000B18BE989FA8986859785A089B189BC0118
:10106000CD010E944C16DC01CB019C8B8B8B2B8914
:101070003C8933233CF48B899C89909581959F4FC3
:101080009C8B8B8BEB89FC89CF01AA2797FDA095C0
:10109000BA2FBC01CD010E94EE15DC01CB01BC01D1
:1010A000CD010E947F1ADC01CB01BC01CD010E9461
:1010B000E211DC01CB019C018C81B9010E94750D0C
:1010C0001B82E989FA8986859785A089B189BC0147
:1010D000CD0120E030E040E050E00E945E1518169F
:1010E00014F481E08B838C816B810E94A308E989D1
:1010F000FA898D819E81AF81B88586839783A08789
:10110000B187E989FA898D819E81AF81B885828313
:101110009383A483B5838C818F5F8C838C81823091
:1011200008F43DCD64960FB6F894DEBF0FBECDBF78
:10113000CF91DF911F910F91FF90EF90DF90CF90B3
:10114000BF90AF900895DF93CF9300D000D0CDB77C
:10115000DEB789836A838981282F30E03C832B8323
:101160008B819C81009739F12B813C8121303105A5
:1011700009F041C08A81882379F0A5E3B0E0E5E376
:10118000F0E0808180618C93A5E3B0E0E5E3F0E0DE
:1011900080818F778C932FC0A5E3B0E0E5E3F0E08A
:1011A000808180688C93A5E3B0E0E5E3F0E0808186
:1011B0008F7E8C9320C08A81882379F0A5E3B0E0EC
:1011C000E5E3F0E0808188608C93A5E3B0E0E5E39F
:1011D000F0E080818E7F8C930EC0A5E3B0E0E5E364
:1011E000F0E0808181608C93A5E3B0E0E5E3F0E07E
:1011F0008081877F8C930F900F900F900F90CF91ED
:10120000DF91089578941F920F920FB60F921124D8
:101210002F933F934F935F936F937F938F939F93FE
:10122000AF93BF93EF93FF93DF93CF9300D0CDB7EE
:10123000DEB780E00E949C059A838983E9E3F0E0B1
:101240008081882F90E080719070009729F0E9816B
:10125000FA8181E0828B04C0E981FA818FEF828B71
:10126000E981FA81838994890196E981FA81948BD5
:10127000838B0F900F90CF91DF91FF91EF91BF91F2
:10128000AF919F918F917F916F915F914F913F911E
:101290002F910F900FBE0F901F90189578941F926A
:1012A0000F920FB60F9211242F933F934F935F939A
:1012B0006F937F938F939F93AF93BF93EF93FF931E
:1012C000DF93CF9300D0CDB7DEB781E00E949C05BD
:1012D0009A838983E9E3F0E08081882F90E080722F
:1012E0009070009729F0E981FA818FEF828B04C01A
:1012F000E981FA8181E0828BE981FA81838994898D
:101300000196E981FA81948B838B0F900F90CF9196
:10131000DF91FF91EF91BF91AF919F918F917F915D
:101320006F915F914F913F912F910F900FBE0F9052
:101330001F901895DF93CF93CDB7DEB729970FB6DF
:10134000F894DEBF0FBECDBF8F83798768878F810A
:101350000E949C059A838983E981FA8123893489D3
:10136000888599852817390768F0E981FA812389EA
:10137000348988859985A901481B590BCA019C832A
:101380008B830DC0888599859C0120953095E981D6
:10139000FA8183899489820F931F9C838B83E981CF
:1013A000FA81838994899E838D838B819C81AD8111
:1013B000BE81BC01CD0129960FB6F894DEBF0FBEE9
:1013C000CDBFCF91DF9108951F920F920FB60F926C
:1013D00011248F939F93DF93CF93CDB7DEB781E036
:1013E00090E09093D8018093D701CF91DF919F91A6
:1013F0008F910F900FBE0F901F901895DF93CF9392
:10140000CDB7DEB7A7E2B0E0E7E2F0E0808180642C
:101410008C93A6E2B0E0E6E2F0E080818F688C93E6
:10142000CF91DF910895DF93CF9300D00F92CDB786
:10143000DEB78B83A7E2B0E0E7E2F0E08081982F8F
:10144000907E8B81892B8C93A6E2B0E0E6E2F0E0FF
:10145000808180648C931A8219820BC08091D7019D
:101460009091D801009759F489819A8101969A83C5
:10147000898389819A8127E28031920778F31092DB
:10148000D8011092D701E4E2F0E0808191810F90C1
:101490000F900F90CF91DF910895DF93CF9300D0FD
:1014A000CDB7DEB79A8389831092DA011092D90101
:1014B0001FC040916000509161002091D90130918E
:1014C000DA0189819A81FC01E20FF31F2081CA01B0
:1014D000622F0E948D0A909361008093600080913A
:1014E000D9019091DA0101969093DA018093D901A4
:1014F00089819A810E94761A9C018091D9019091EC
:10150000DA0182179307A8F2809160009091610040
:101510000F900F90CF91DF910895DF93CF9300D07C
:1015200000D00F92CDB7DEB79C838B836D832D8166
:101530008B819C818227082E8295807F8025092EB1
:10154000982F82958F700826869598278927880F6F
:10155000880F880F80259A83898389819A810F90CB
:101560000F900F900F900F90CF91DF910895DF9320
:10157000CF93CDB7DEB727970FB6F894DEBF0FBE77
:10158000CDBF9E838D836F838FEF9FEF9A83898377
:101590001C821B8214C02D813E818B819C81F901AC
:1015A000E80FF91F208189819A81622F0E94F20A37
:1015B0009A8389838B819C8101969C838B838F8105
:1015C000282F30E08B819C818217930720F389813B
:1015D0009A8127960FB6F894DEBF0FBECDBFCF918C
:1015E000DF910895DF93CF9300D000D000D0CDB726
:1015F000DEB79D838C836E832E818C819D818227B3
:10160000282F22952827022E269526952025022E62
:10161000269520252770082E892F26950794279533
:10162000902D822706942795902582279A83898377
:101630002B8389819A8126960FB6F894DEBF0FBE60
:10164000CDBFCF91DF910895DF93CF93CDB7DEB7B4
:1016500066970FB6F894DEBF0FBECDBF9D8B8C8B07
:101660006E8B8E8985508E8B8E8982508F838E896A
:1016700081508E831A8A198A8E8983508B8B1982A6
:1016800054C08981882359F48981282F30E08C89BE
:101690009D89FC01E20FF31F8081888743C09981F7
:1016A0008F819817A1F48981282F30E08C899D893A
:1016B000FC01E20FF31F8081882F90E09A8B898BC9
:1016C00089899A89982F88279A8B898B2BC0998131
:1016D0008E81981791F449895A898981282F30E0A1
:1016E0008C899D89FC01E20FF31F8081882F90E097
:1016F000840F951F9A8B898B15C08981882F90E064
:10170000AC01415050408981282F30E08C899D895F
:10171000FC01E20FF31F2081CE010996FC01E40FCA
:10172000F51F208389818F5F898399818E8998171E
:1017300008F4A7CF8E89282F22508C899D89622F8B
:101740000E94B70A9D838C8329893A898C819D8167
:101750002817390721F081E00E94230D0CC00E9458
:10176000BF0C9B838A838A819B819E01285F3F4FA8
:10177000B9010E94180E66960FB6F894DEBF0FBE30
:10178000CDBFCF91DF910895DF93CF93CDB7DEB773
:1017900063970FB6F894DEBF0FBECDBF9E878D87CF
:1017A0000E94BF0C9093DC018093DB018091DB01F0
:1017B0009091DC019E012F5F3F4FB9010E947D0E89
:1017C0008D859E85988B8F87FE013196FA8BE98BEC
:1017D000FCE0FB8BE989FA89008089899A89019666
:1017E0009A8B898BEF85F88900828F85988901967D
:1017F000988B8F879B8991509B8BEB89EE2351F7B8
:101800008D859E8563960FB6F894DEBF0FBECDBF63
:10181000CF91DF910895EF92FF920F931F93DF9383
:10182000CF93CDB7DEB72E970FB6F894DEBF0FBEBD
:10183000CDBF8D876E878FEF8A838D858B838E8555
:101840008C8383E08C87E980FA800B811C812D8159
:101850003E814F81588569857A858B859C850E945C
:101860003E0C2E960FB6F894DEBF0FBECDBFCF91C3
:10187000DF911F910F91FF90EF900895EF92FF92EB
:101880000F931F93DF93CF93CDB7DEB76E970FB64D
:10189000F894DEBF0FBECDBFEB8AFC8A0D8B1E8B8A
:1018A0002F8B388F498F5A8F6B8F7C8F8D8F9E8FA8
:1018B0008AEF8B838E8DE82FF0E0CE010396AC018A
:1018C0004F5F5F4FCE0143969C012F5F3F4FCA0190
:1018D000B901AF010E94661A8E8D282F2F5FCE01AD
:1018E0000396622F0E94B70A9A8389838E8D882F70
:1018F00090E09C012F5F3F4F89819A81892F992722
:10190000482FCE010396FC01E20FF31F40838E8D1A
:10191000882F90E09C012E5F3F4F4981CE010396B6
:10192000FC01E20FF31F40838E8D282F2D5FCE0127
:101930000396622F0E94DF106E960FB6F894DEBFFA
:101940000FBECDBFCF91DF911F910F91FF90EF9010
:101950000895DF93CF9300D00F92CDB7DEB79A836F
:1019600089836B83F89489819A816B810E94240B0F
:1019700078940F900F900F90CF91DF910895DF939F
:10198000CF93CDB7DEB72E970FB6F894DEBF0FBE5C
:10199000CDBF8091DD01882351F5CE0101966AE02B
:1019A0004CE050E00E94A30D8EED91E09B878A876A
:1019B000FE013196FD87EC87F9E0FE87EC85FD8519
:1019C00000808C859D8501969D878C87EA85FB85A7
:1019D00000828A859B8501969B878A879E85915088
:1019E0009E87EE85EE2351F781E08093DD018EED39
:1019F00091E02E960FB6F894DEBF0FBECDBFCF910B
:101A0000DF910895DF93CF93CDB7DEB787EE91E0F6
:101A1000CF91DF910895DF93CF9300D00F92CDB790
:101A2000DEB70E94020D9B838A83EA81FB8180815D
:101A30008983EA81FB81108289810F900F900F903A
:101A4000CF91DF910895DF93CF9300D00F92CDB760
:101A5000DEB78B830E94020D9A838983E981FA8124
:101A60008B8180830F900F900F90CF91DF9108951D
:101A7000DF93CF93CDB7DEB7A1E3B0E0E1E3F0E0D1
:101A8000808180638C93EAE4F0E011821082E8E4C4
:101A9000F0E011821082AFE4B0E0EFE4F0E080818A
:101AA000836A8C93AEE4B0E0EEE4F0E08081816084
:101AB0008C93CF91DF910895DF93CF9300D0CDB772
:101AC000DEB78A83EEE4F0E08081887F8983EEE4EC
:101AD000F0E08A8187708A839A818981892B80834B
:101AE0000F900F90CF91DF910895DF93CF9300D0A7
:101AF00000D00F92CDB7DEB789837B836A8389815B
:101B0000282F30E03D832C838C819D81009731F01C
:101B10002C813D812130310541F00DC0EAE4F0E037
:101B20008A819B819183808306C0E8E4F0E08A810A
:101B30009B81918380830F900F900F900F900F9057
:101B4000CF91DF910895DF93CF93CDB7DEB768973C
:101B50000FB6F894DEBF0FBECDBF9E878D876A8714
:101B60005C874B8719821A821B828A858C838B85BE
:101B70009C859E838D831F828A85882F90E02B858C
:101B80003C85B9010E944519998788878885998580
:101B9000009719F581E08F838D859E85988B8F87BF
:101BA000FE013196FA8BE98BF9E0FB8BE989FA8922
:101BB000008089899A8901969A8B898BEF85F889AB
:101BC00000828F8598890196988B8F879B89915089
:101BD0009B8BEB89EE2351F720C08D859E859D8BD5
:101BE0008C8BFE013196FF8BEE8BF9E0F88FEE893E
:101BF000FF8900808E899F8901969F8B8E8BEC894F
:101C0000FD8900828C899D8901969D8B8C8B988D96
:101C10009150988FE88DEE2351F78D859E856896BB
:101C20000FB6F894DEBF0FBECDBFCF91DF91089500
:101C3000DF93CF9300D000D0CDB7DEB79A838983EE
:101C40007C836B83E981FA818281882F90E09C01FB
:101C50002F5F3F4FE981FA818381882F90E08217BF
:101C600093072CF4E981FA8182E086833FC0E98101
:101C7000FA818081282F30E0E981FA818381882FE1
:101C800090E00197821793071CF4E981FA81108292
:101C9000E981FA8147815085E981FA818081282F85
:101CA00030E0E981FA8184819581BC01269FC001E1
:101CB000279F900D369F900D1124840F951FE98169
:101CC000FA81448155812B813C81B9010E94661AB9
:101CD000E981FA8180818F5FE981FA818083E981DE
:101CE000FA8182818F5FE981FA8182830F900F9060
:101CF0000F900F90CF91DF910895DF93CF9300D095
:101D000000D0CDB7DEB79A8389837C836B83E9816A
:101D1000FA818281882339F4E981FA8183E086831C
:101D20001C821B8245C0E981FA8181818093E80190
:101D3000E981FA818181282F30E0E981FA8183816C
:101D4000882F90E00197821793071CF4E981FA81AC
:101D50001182E981FA8147815085E981FA81818187
:101D6000282F30E0E981FA8184819581BC01269F8A
:101D7000C001279F900D369F900D1124480F591FC9
:101D8000E981FA81248135818B819C81BA01A90185
:101D90000E94661AE981FA8182818150E981FA8183
:101DA0008283E981FA8181818F5FE981FA81818370
:101DB0000F900F900F900F90CF91DF910895DF93C8
:101DC000CF9300D0CDB7DEB79A838983E981FA81BA
:101DD00082810F900F90CF91DF910895DF93CF9381
:101DE00000D0CDB7DEB79A838983E981FA818681F5
:101DF0008093E901E981FA8116828091E9010F90CF
:101E00000F90CF91DF910895DF93CF93CDB7DEB7D9
:101E1000A5E4B0E0E5E4F0E0808182608C93A9E580
:101E2000B0E0E9E5F0E0808180648C93CF91DF91B0
:101E3000089578941F920F920FB60F9211242F934A
:101E40003F934F935F936F937F938F939F93AF9342
:101E5000BF93EF93FF93DF93CF9300D0CDB7DEB75F
:101E60000E94A4109A838983E981FA8180819181FB
:101E7000A281B3810196A11DB11DE981FA81808300
:101E80009183A283B383E981FA8180819181A281C8
:101E9000B381803422E492072FE0A20720E0B2074A
:101EA00030F0E981FA8110821182128213820F9040
:101EB0000F90CF91DF91FF91EF91BF91AF919F91E3
:101EC0008F917F916F915F914F913F912F910F90E3
:101ED0000FBE0F901F901895DF93CF9300D000D0C6
:101EE00000D0CDB7DEB70E94A4109E838D831982E7
:101EF0001A821B821C82ED81FE8180819181A281E8
:101F0000B3812227382F492F5A2FE4E4F0E0808153
:101F1000882F90E0A0E0B0E0820F931FA41FB51FB0
:101F200089839A83AB83BC8389819A81AB81BC818D
:101F3000BC01CD0126960FB6F894DEBF0FBECDBF13
:101F4000CF91DF910895AF92BF92CF92DF92EF923F
:101F5000FF920F931F93DF93CF93CDB7DEB7A59773
:101F60000FB6F894DEBF0FBECDBF6D8B7E8B8F8B0F
:101F7000988F0E946C0FDC01CB0189839A83AB831D
:101F8000BC8329813A814B815C818D899E89AF898F
:101F9000B88D82179307A407B50788F489819A81C1
:101FA000AB81BC812D893E894F89588D821B930B53
:101FB000A40BB50B8D879E87AF87B88B18C029817E
:101FC0003A814B815C818D899E89AF89B88D790179
:101FD0008A01E81AF90A0A0B1B0BD801C7018050C5
:101FE000904CAD4BB04F8D879E87AF87B88B898162
:101FF0009A81AB81BC81898B9A8BAB8BBC8B8E0118
:102000000B5F1F4F1A8F098FCE010D969C8F8B8F00
:1020100098E09D8FEB8DFC8D00800B8D1C8D0F5FEC
:102020001F4F1C8F0B8FE98DFA8D0082098D1A8D41
:102030000F5F1F4F1A8F098F1D8D11501D8F8D8DB2
:10204000882341F770E07D8180E08E8190E09F8160
:1020500020E0288530E0398540E04A8550E05B8506
:1020600060E06C857E8F8F8F98A329A33AA34BA342
:102070005CA36DA3AE8CBF8CC8A0D9A0EAA0FBA0C6
:102080000CA11DA12A2D3B2D4C2D5D2D6E2D7F2DDC
:10209000802F912FA5960FB6F894DEBF0FBECDBF4F
:1020A000CF91DF911F910F91FF90EF90DF90CF9034
:1020B000BF90AF900895DF93CF9300D000D0CDB7FD
:1020C000DEB769837A838B839C8389819A81AB8114
:1020D000BC810097A105B10541F40E946C0FDC01A1
:1020E000CB0189839A83AB83BC8369817A818B819D
:1020F0009C810E94A016DC01CB01BC01CD0120E037
:1021000034E244E75BE40E94B214DC01CB01BC0181
:10211000CD0120E030E040E051E40E94B813DC0142
:10212000CB01BC01CD0120E030E04AE754E40E943D
:10213000B813DC01CB01BC01CD010F900F900F90C3
:102140000F90CF91DF910895DF93CF93CDB7DEB796
:102150008AEE91E0CF91DF910895DF93CF93CDB7D1
:10216000DEB7E0E4F0E01082E9E2F0E082E28083B2
:10217000ABE2B0E0EBE2F0E0808182608C93AAE217
:10218000B0E0EAE2F0E0808188698C93CF91DF9142
:102190000895DF93CF930F92CDB7DEB789830F9069
:1021A000CF91DF910895DF93CF9300D0CDB7DEB705
:1021B0009A8389830F900F90CF91DF910895DF93D9
:1021C000CF9300D000D00F92CDB7DEB79C838B8326
:1021D0006D830F900F900F900F900F90CF91DF9124
:1021E0000895DF93CF93CDB7DEB72A970FB6F89453
:1021F000DEBF0FBECDBF9A8789872A960FB6F894A7
:10220000DEBF0FBECDBFCF91DF9108951F920F9219
:102210000FB60F9211242F933F934F935F936F93B9
:102220007F938F939F93AF93BF93EF93FF93DF932E
:10223000CF930F92CDB7DEB7EBE2F0E08081882F2D
:1022400090E080719070009739F01092EF0184E572
:1022500090E00E94F11007C0ECE2F0E080818983F9
:1022600089810E9447110F90CF91DF91FF91EF91EB
:10227000BF91AF919F918F917F916F915F914F919E
:102280003F912F910F900FBE0F901F901895DF93E5
:10229000CF930F92CDB7DEB789838981882321F44C
:1022A00081E08093EE010FC089818F3F51F48091CE
:1022B000EE01882331F08091EE018F5F8093EE0173
:1022C00002C01092EE018091EE01853070F0109204
:1022D000EE018091EF01282F2F5F80EF91E0622FB8
:1022E0000E94A90C1092EF0117C08091EF018F5F3F
:1022F0008093EF018091EF01803420F084E690E03C
:102300000E94F1108091EF01882F90E00197FC016D
:10231000E051FE4F898180830F90CF91DF91089526
:10232000DF93CF93CDB7DEB7C454D0400FB6F89447
:10233000DEBF0FBECDBFFE01EF5BFF4F6083718339
:1023400082839383CC5BDF4F0FB6F894DEBF0FBE62
:10235000CDBFCF91DF910895DF93CF93CDB7DEB797
:10236000C454D0400FB6F894DEBF0FBECDBFFE01FF
:10237000EF5BFF4F6083718382839383CC5BDF4F7E
:102380000FB6F894DEBF0FBECDBFCF91DF91089599
:10239000DF93CF930F92CDB7DEB789838981882FE2
:1023A00090E0880F991F880F991FFC01E459FF4F97
:1023B00080819181A281B381BC01CD010F90CF9129
:1023C000DF910895EF92FF920F931F937B018C0191
:1023D00020E030E040E05FE40E948E1588238CF01E
:1023E000C801B70120E030E040E05FE40E945A13EA
:1023F0000E944C169B01AC01205030404040504898
:1024000006C0C801B7010E944C169B01AC01B9017E
:10241000CA011F910F91FF90EF900895A0E0B0E0E6
:10242000E4E1F2E10C940E19DC012B01FA019C911C
:10243000923008F439C1EB018881823008F433C14D
:10244000943069F4843009F02FC111969C91119752
:102450008981981709F428C1A8E7B0E025C1843024
:1024600009F421C18230A9F4923009F01DC19A010A
:10247000AD0188E0EA010990AE01E90109929E01EF
:102480008150C1F7E201898111969C918923818352
:1024900008C1923009F407C112962D903C90139711
:1024A000EB018A819B811496AD90BD90CD90DC901C
:1024B0001797EC80FD800E811F819101281B390B3D
:1024C000B90137FF04C066277727621B730B6032A0
:1024D00071050CF061C0121613066CF53701480146
:1024E000062E04C096948794779467940A94D2F742
:1024F00021E030E040E050E004C0220F331F441FD1
:10250000551F6A95D2F721503040404050402E214F
:102510003F2140235123211531054105510521F06B
:1025200021E030E040E050E079018A01E628F72818
:10253000082919293CC0232BD1F1260E371E35015D
:102540004601062E04C096948794779467940A9463
:10255000D2F721E030E040E050E004C0220F331F0A
:10256000441F551F6A95D2F72150304040405040DB
:102570002A213B214C215D212115310541055105C1
:1025800021F021E030E040E050E059016A01A62846
:10259000B728C828D9280BC0821593052CF01C0138
:1025A000AA24BB24650103C0EE24FF2487011196F1
:1025B0009C91D20111968C91981709F445C09923EA
:1025C00039F0A80197012A193B094C095D0906C099
:1025D000A60195012E193F09400B510B57FD08C06C
:1025E00011823382228224833583468357831DC020
:1025F00081E081833382228288279927DC01821B34
:10260000930BA40BB50B84839583A683B7830DC06E
:10261000220F331F441F551F24833583468357835E
:1026200082819381019793838283248135814681BE
:102630005781DA01C9010197A109B1098F5F9F4F45
:10264000AF4FBF4328F30BC0918333822282EA0C41
:10265000FB1C0C1D1D1DE482F5820683178383E09D
:102660008083248135814681578157FF1AC0C90173
:10267000AA2797FDA095BA2F81709070A070B070B6
:102680005695479537952795822B932BA42BB52BE1
:1026900084839583A683B7838281938101969383F4
:1026A0008283DF0101C0D201CD01CDB7DEB7E2E107
:1026B0000C942A19A0E2B0E0E0E6F3E10C941A19B8
:1026C00069837A838B839C832D833E834F835887D2
:1026D000E9E0EE2EF12CEC0EFD1ECE010196B701C5
:1026E0000E943D188E010F5E1F4FCE010596B80166
:1026F0000E943D188A8991E089278A8BC701B80119
:10270000AE01475E5F4F0E940E120E946817A096AE
:10271000E6E00C943619A0E2B0E0E1E9F3E10C94B4
:102720001A1969837A838B839C832D833E834F831D
:102730005887F9E0EF2EF12CEC0EFD1ECE0101962C
:10274000B7010E943D188E010F5E1F4FCE01059606
:10275000B8010E943D18C701B801AE01475E5F4F46
:102760000E940E120E946817A096E6E00C9436199B
:10277000A0E2B0E0EEEBF3E10C940E1969837A83EA
:102780008B839C832D833E834F835887CE01019694
:10279000BE01675F7F4F0E943D18CE010596BE01C6
:1027A0006F5E7F4F0E943D189985923088F089892D
:1027B0008230C8F0943019F4823051F404C084306F
:1027C00029F4923081F488E790E0C6C0923049F451
:1027D00020E09A858A89981321E02A87CE010996FC
:1027E000BBC0823049F420E09A858A89981321E0A1
:1027F0002A8BCE014196B0C02D843E844F845888E8
:102800006D887E888F88988CEE24FF248701AA2407
:10281000BB24650140E050E060E070E0E0E0F0E003
:10282000C10181709070892BE9F0E60CF71C081D3E
:10283000191D9A01AB012A0D3B1D4C1D5D1D80E049
:1028400090E0A0E0B0E0E614F7040805190520F4D4
:1028500081E090E0A0E0B0E0BA01A901480F591F63
:102860006A1F7B1FAA0CBB1CCC1CDD1C97FE08C07A
:1028700081E090E0A0E0B0E0A82AB92ACA2ADB2AC9
:102880003196E032F10549F0660C771C881C991CE2
:102890005694479437942794C3CFFA85EA892B89B5
:1028A0003C898B859C85280F391F2E5F3F4F17C0B1
:1028B000CA0181709070892B61F016950795F79485
:1028C000E79480E090E0A0E0B0E8E82AF92A0A2B3B
:1028D0001B2B76956795579547952F5F3F4F77FD53
:1028E000E7CF0CC0440F551F661F771F17FD4160CF
:1028F000EE0CFF1C001F111F21503040403090E0B3
:10290000590790E0690790E4790760F32B8F3C8FBB
:10291000DB01CA018F779070A070B0708034910590
:10292000A105B10561F447FD0AC0E114F1040105F8
:10293000110529F0405C5F4F6F4F7F4F40781A8E32
:10294000FE1711F081E08A8F4D8F5E8F6F8F78A315
:1029500083E0898FCE0149960E946817A096E2E134
:102960000C942A19A8E1B0E0E8EBF4E10C941619F4
:1029700069837A838B839C832D833E834F8358871F
:10298000B9E0EB2EF12CEC0EFD1ECE010196B70145
:102990000E943D188E010F5E1F4FCE010596B801B3
:1029A0000E943D182985223008F47EC039893230D2
:1029B00010F4B8017CC08A859A8989278A872430D7
:1029C00011F0223031F4231709F06EC068E770E08F
:1029D0006EC0343039F41D861E861F86188A1C8608
:1029E0001B8604C0323021F484E08987B7015FC0C0
:1029F0002B853C858B899C89281B390B3C872B8731
:102A0000ED84FE840F851889AD88BE88CF88D88C68
:102A1000EA14FB040C051D0540F4EE0CFF1C001F1E
:102A2000111F215030403C872B8720E030E040E0F0
:102A300050E080E090E0A0E0B0E460E070E0EA14F4
:102A4000FB040C051D0540F0282B392B4A2B5B2B72
:102A5000EA18FB080C091D09B695A7959795879567
:102A6000EE0CFF1C001F111F6F5F7F4F6F31710550
:102A700031F7DA01C9018F779070A070B07080349F
:102A80009105A105B10561F427FD0AC0E114F10427
:102A90000105110529F0205C3F4F4F4F5F4F207813
:102AA0002D873E874F87588BBE01675F7F4FCB01D5
:102AB0000E9468176896EAE00C943219A8E1B0E029
:102AC000E4E6F5E10C941A1969837A838B839C837D
:102AD0002D833E834F83588789E0E82EF12CEC0E3E
:102AE000FD1ECE010196B7010E943D188E010F5EBA
:102AF0001F4FCE010596B8010E943D18898582308E
:102B000040F08989823028F0C701B8010E94B518C9
:102B100001C08FEF6896E6E00C943619A8E1B0E0AA
:102B2000E4E9F5E10C941A1969837A838B839C8319
:102B30002D833E834F83588789E0E82EF12CEC0EDD
:102B4000FD1ECE010196B7010E943D188E010F5E59
:102B50001F4FCE010596B8010E943D18898582302D
:102B600040F08989823028F0C701B8010E94B51869
:102B700001C08FEF6896E6E00C943619A8E1B0E04A
:102B8000E4ECF5E10C941A1969837A838B839C83B6
:102B90002D833E834F83588789E0E82EF12CEC0E7D
:102BA000FD1ECE010196B7010E943D188E010F5EF9
:102BB0001F4FCE010596B8010E943D1889858230CD
:102BC00040F08989823028F0C701B8010E94B51809
:102BD00001C081E06896E6E00C943619A8E0B0E008
:102BE000E4EFF5E10C9417199B01AC0183E08983B4
:102BF000DA01C9018827B7FD83959927AA27BB2742
:102C0000B82E211531054105510519F482E089835B
:102C10003AC08823A9F0203080E0380780E04807D8
:102C200080E8580729F460E070E080E09FEC30C055
:102C3000EE24FF248701E21AF30A040B150B02C0ED
:102C400079018A018EE1C82ED12CDC82CB82ED8203
:102C5000FE820F831887C801B7010E9419170197D8
:102C60001816190684F4082E04C0EE0CFF1C001F71
:102C7000111F0A94D2F7ED82FE820F831887C81ABB
:102C8000D90ADC82CB82BA82CE0101960E946817F3
:102C90002896E9E00C943319ACE0B0E0E2E5F6E107
:102CA0000C941E1969837A838B839C83CE010196D1
:102CB000BE016B5F7F4F0E943D188D81823061F1B4
:102CC000823050F1843021F48E81882351F12EC05E
:102CD0002F81388537FD20C06E812F3131051CF0E2
:102CE0006623F9F023C08EE190E0821B930B2985C7
:102CF0003A854B855C8504C0569547953795279551
:102D00008A95D2F76623B1F050954095309521957C
:102D10003F4F4F4F5F4F0EC020E030E040E050E0AB
:102D200009C02FEF3FEF4FEF5FE704C020E030E036
:102D300040E050E8B901CA012C96E2E00C943A193F
:102D4000A8E0B0E0E6EAF6E10C9416197B018C01EC
:102D5000611571058105910519F482E0898360C0D0
:102D600083E089838EE1C82ED12CDC82CB82ED8278
:102D7000FE820F831887C801B7010E941917FC0152
:102D80003197F7FF3BC0222733272E1B3F0B5701FC
:102D90006801022E04C0D694C794B794A7940A94ED
:102DA000D2F740E050E060E070E081E090E0A0E029
:102DB000B0E004C0880F991FAA1FBB1F2A95D2F745
:102DC0000197A109B1098E219F21A023B12300976A
:102DD000A105B10521F041E050E060E070E04A2932
:102DE0005B296C297D294D835E836F8378878EE113
:102DF00090E08E1B9F0B9C838B8312C0309781F0D9
:102E00000E2E04C0EE0CFF1C001F111F0A94D2F7F7
:102E1000ED82FE820F831887CE1ADF0ADC82CB8216
:102E20001A82CE0101960E9468172896EAE00C9457
:102E30003219EF92FF920F931F937B018C0180E078
:102E4000E81680E0F80681E0080780E0180788F4BB
:102E50008FEFE816F1040105110531F028F088E044
:102E600090E0A0E0B0E017C080E090E0A0E0B0E02B
:102E700012C080E0E81680E0F80680E0080781E0F4
:102E8000180728F088E190E0A0E0B0E004C080E1FD
:102E900090E0A0E0B0E020E230E040E050E0281B0D
:102EA000390B4A0B5B0B04C016950795F794E79412
:102EB0008A95D2F7F701E058FF4F8081281B31092E
:102EC00041095109C9011F910F91FF90EF90089599
:102ED000DF92EF92FF920F931F93FC01E480F58045
:102EE00006811781D1808081823048F480E090E0B3
:102EF000A0E1B0E0E82AF92A0A2B1B2BA5C08430F8
:102F000009F49FC0823021F4EE24FF24870105C01C
:102F1000E114F1040105110519F4E0E0F0E096C0B8
:102F2000628173819FEF623879070CF05BC022E801
:102F30003FEF261B370B2A3131052CF020E030E023
:102F400040E050E02AC0B801A701022E04C07695E7
:102F50006795579547950A94D2F781E090E0A0E0F5
:102F6000B0E004C0880F991FAA1FBB1F2A95D2F793
:102F70000197A109B1098E219F21A023B1230097B8
:102F8000A105B10521F081E090E0A0E0B0E09A0158
:102F9000AB01282B392B4A2B5B2BDA01C9018F7728
:102FA0009070A070B07080349105A105B10539F41E
:102FB00027FF09C0205C3F4F4F4F5F4F04C0215C8B
:102FC0003F4F4F4F5F4FE0E0F0E02030A0E03A0786
:102FD000A0E04A07A0E45A0710F0E1E0F0E0790130
:102FE0008A0127C06038710564F5FB01E158FF4F85
:102FF000D801C7018F779070A070B07080349105B0
:10300000A105B10539F4E7FE0DC080E490E0A0E031
:10301000B0E004C08FE390E0A0E0B0E0E80EF91E5D
:103020000A1F1B1F17FF05C016950795F794E79415
:10303000319687E016950795F794E7948A95D1F72E
:1030400005C0EE24FF248701EFEFF0E06E2F6795B7
:1030500066276795902F9F77D794DD24D7948E2F7E
:103060008695492F462B582F5D29B701CA011F911C
:103070000F91FF90EF90DF900895FC01DB014081FC
:1030800051812281622F6F7770E0221F2227221F39
:103090009381892F880F822B282F30E0991F992741
:1030A000991F11969C93119721153105A9F541158A
:1030B00051056105710511F482E037C082E89FEF88
:1030C00013969C938E9312979A01AB0167E0220F9F
:1030D000331F441F551F6A95D1F783E08C930DC0B1
:1030E000220F331F441F551F12968D919C911397E9
:1030F000019713969C938E931297203080E03807A7
:1031000080E0480780E4580758F314962D933D93C8
:103110004D935C93179708952F3F310579F441152E
:1031200051056105710519F484E08C93089564FFDD
:1031300003C081E08C9312C01C9210C02F57304006
:1031400013963C932E93129783E08C9387E0440F61
:10315000551F661F771F8A95D1F7706414964D939B
:103160005D936D937C93179708951F93DC01FB018A
:103170009C91923008F447C08081823008F443C0AB
:10318000943051F411961C91843099F58181682F07
:1031900070E0611B71093FC0843021F0923031F43E
:1031A0008230B9F18181882389F12DC011961C915B
:1031B00011978230F1F081811817D9F412962D9170
:1031C0003C911397828193818217930794F028177B
:1031D0003907BCF014968D919D910D90BC91A02D56
:1031E0002481358146815781281739074A075B07B3
:1031F00018F4112341F00AC082179307A407B507FA
:1032000040F4112319F061E070E005C06FEF7FEF2B
:1032100002C060E070E0CB011F9108952F923F92B1
:103220004F925F926F927F928F929F92AF92BF92D6
:10323000CF92DF92EF92FF920F931F93CF93DF9382
:10324000CDB7DEB7CA1BDB0B0FB6F894DEBF0FBEDF
:10325000CDBF09942A88398848885F846E847D842C
:103260008C849B84AA84B984C884DF80EE80FD802E
:103270000C811B81AA81B981CE0FD11D0FB6F894A4
:10328000DEBF0FBECDBFED0108950F931F93CF9307
:10329000DF93689F8001699F100D789F100D1124A6
:1032A000C8010E946119EC01009729F060E070E00C
:1032B000A8010E946F1ACE01DF91CF911F910F914B
:1032C0000895CF93DF93BC018230910510F462E042
:1032D00070E0A0911202B0911302ED01E0E0F0E085
:1032E00040E050E021C0888199818617970769F4F2
:1032F0008A819B81309719F09383828304C09093D5
:10330000130280931202FE0134C06817790738F463
:103310004115510519F08417950708F4AC01FE0119
:103320008A819B819C01E9012097E9F641155105AD
:10333000A9F1CA01861B970B049708F4BA01E0E0D3
:10334000F0E02AC08D919C91119784179507F9F4AC
:103350006417750781F412968D919C91139730979D
:1033600019F09383828304C0909313028093120216
:10337000FD0132964FC0CA01861B970BFD01E80F75
:10338000F91F6193719302978D939C9343C0FD0144
:10339000828193819C01D9011097A1F6809110023E
:1033A00090911102892B41F48091820190918301C7
:1033B00090931102809310024091840150918501F5
:1033C0004115510541F44DB75EB780918001909150
:1033D0008101481B590B20911002309111022417D2
:1033E0003507B0F4CA01821B930B8617970780F04C
:1033F000AB014E5F5F4F8417950750F0420F531F8C
:103400005093110240931002F9016193719302C02D
:10341000E0E0F0E0CF01DF91CF910895CF93DF930B
:10342000009709F450C0EC0122971B821A82A091E8
:103430001202B0911302109709F140E050E0AC176E
:10344000BD0708F1BB83AA83FE0121913191E20FF0
:10345000F31FAE17BF0779F48D919C911197280F38
:10346000391F2E5F3F4F3983288312968D919C918F
:1034700013979B838A834115510571F4D0931302EE
:10348000C093120220C012968D919C911397AD01AA
:10349000009711F0DC01D3CFFA01D383C2832191CD
:1034A0003191E20FF31FCE17DF0769F4888199810C
:1034B000280F391F2E5F3F4FFA01318320838A8105
:1034C0009B8193838283DF91CF910895FB01DC017F
:1034D00002C001900D9241505040D8F70895DC0190
:1034E00001C06D9341505040E0F70895FC010190F8
:1034F0000020E9F7809590958E0F9F1F08953BD08F
:1035000080F09F3740F491110EF04DC060E070E004
:1035100080E89FEB089526F41B16611D711D811D27
:1035200001C01BC0882371F4772321F09850872BAA
:10353000762F07C0662311F499270DC09051862B72
:1035400070E060E02AF09A95660F771F881FDAF71F
:10355000880F9695879597F908959F3F31F0915080
:1035600020F4879577956795B795880F911D969567
:10357000879597F9089525D0A0F0BEE7B91788F48C
:10358000BB279F3860F41616B11D672F782F882748
:10359000985FF7CF869577956795B11D9395963986
:1035A000C8F30895E894BB2766277727CB0197F9DE
:1035B000089557FD9058440F551F59F05F3F71F023
:1035C0004795880F97FB991F61F09F3F79F087958A
:1035D0000895121613061406551FF2CF4695F1DF13
:1035E00008C0161617061806991FF1CF86957105A3
:0A35F000610508940895F894FFCFD8
:1035FA00FFFF00FFFFFFFF00FFFFFFFF8FC2753CC9
:10360A009A99193E3333B33E0000000000000000CF
:10361A00000102020303030304040404040404046F
:10362A000505050505050505050505050505050540
:10363A000606060606060606060606060606060620
:10364A000606060606060606060606060606060610
:10365A0007070707070707070707070707070707F0
:10366A0007070707070707070707070707070707E0
:10367A0007070707070707070707070707070707D0
:10368A0007070707070707070707070707070707C0
:10369A0008080808080808080808080808080808A0
:1036AA000808080808080808080808080808080890
:1036BA000808080808080808080808080808080880
:1036CA000808080808080808080808080808080870
:1036DA000808080808080808080808080808080860
:1036EA000808080808080808080808080808080850
:1036FA000808080808080808080808080808080840
:10370A00080808080808080808080808080808082F
:06371A0020001402000073
:00000001FF
