:100000000C9439000C9410020C9428020C945600A5
:100010000C9456000C94DF060C9456000C94560079
:100020000C9456000C9456000C9456000C945600F8
:100030000C9456000C94E4080C9456000C94560052
:100040000C9412090C9456000C9456000C94560013
:100050000C945600216275666665725F66756C6CFD
:100060000A00216672616D696E675F6572726F72F8
:100070000A0011241FBECFE5D8E0DEBFCDBF11E0DE
:10008000A0E6B0E0EEE2F9E202C005900D92A238DF
:10009000B107D9F712E0A2E8B1E001C01D92A53086
:1000A000B107E1F70E9424010C9495140C94000010
:1000B00082E891E008950895EF92FF920F931F93C5
:1000C000DF93CF93CDB7DEB72C970FB6F894DEBF92
:1000D0000FBECDBF262F90E39A838B837C836D83E5
:1000E00094E09C87E98030E3F32E082F172F3E81A0
:1000F0004F81588569857A858B850E94FF042C96EF
:100100000FB6F894DEBF0FBECDBFCF91DF911F9128
:100110000F91FF90EF900895EF92FF920F931F932E
:10012000DF93CF93CDB7DEB72C970FB6F894DEBF31
:100130000FBECDBF20E22A839B838C8323E02C87D4
:10014000E98040E2F42E092F182F2D813E814F8146
:10015000588569857A858B8593E00E94FF042C96EB
:100160000FB6F894DEBF0FBECDBFCF91DF911F91C8
:100170000F91FF90EF9008950F931F93FC01508112
:1001800040E0128100E08381080F111D8181480F3A
:10019000511D80E060E00E94FE0181E060E0A80166
:1001A0000E94FE011F910F910895FC0180810E9421
:1001B00038060895FC01718160E08281680F711D2D
:1001C00080810E943E060895EF92FF920F931F9345
:1001D000DF93CF93CDB7DEB72C970FB6F894DEBF81
:1001E0000FBECDBFE982EF2DFA820B831C832D83D6
:1001F0003E834F83588769877A878B879C87E13155
:1002000049F0E13259F0E03171F4CE0103960E94D9
:10021000DA000DC08B810E94380609C0CE0103961A
:100220000E94BC0004C083E060E00E944B052C9655
:100230000FB6F894DEBF0FBECDBFCF91DF911F91F7
:100240000F91FF90EF9008952F923F924F925F92FF
:100250006F927F928F929F92AF92BF92CF92DF92D6
:10026000EF92FF920F931F93DF93CF93CDB7DEB73B
:100270006C970FB6F894DEBF0FBECDBF8BED84BB7D
:100280008EE785BB0E94CE042C010E94D8060E94F6
:10029000B1070E94030480E060E040E951E00E9461
:1002A000FE0181E060E040E951E00E94FE0180E053
:1002B0000E94080281E00E9408020E9426097894A8
:1002C0006624772443010F2EF0E0AF2EF0E0BF2E1E
:1002D000F0E0CF2EF0E0DF2EF02D89E0282E312C3B
:1002E0002C0E3D1E0E94C904682F882311F082E065
:1002F0000EC0F20182818823D9F0C1010E947A05E3
:10030000C2010E944C06682F882321F081E00E94E0
:100310004B05E8CFE984FA840B851C852D853E8545
:100320004F85588969897A898B899C890E94E40064
:10033000C401B3010E9428072D8B3E8B4F8B588F31
:10034000698F7A8F8B8F9C8FDE011196FE017596D7
:1003500088E001900D928150E1F769817A818B816B
:100360009C810E94830720E030E040EA51E40E9433
:10037000BE0C18160CF0B6CF6D807E808F809884EE
:100380000E946002C601B50126E636E646E65FE356
:100390000E94180B7B018C0181E00E942B09A0E0D8
:1003A000B0E0BC01CD010E94A20D20E030E040EAA7
:1003B0005BE30E94180B20E030E04AE754E40E941F
:1003C000180B2EEA37E441EB50E40E94180B2DEC99
:1003D0003CEC4CEC5DE30E94180B9B01AC01C801A6
:1003E000B7010E94EB0A5B016C010E9442099B016C
:1003F000AC0187E5B9010E945C0074CF94E1899F4C
:10040000F0011124E056FE4F51834083628B089522
:1004100094E1899F9001112420563E4FC90108950F
:1004200078941F920F920FB60F9211248F939F937F
:10043000809184019091850101969093850180932C
:1004400084019F918F910F900FBE0F901F90189570
:1004500078941F920F920FB60F9211248F939F934F
:1004600080918601909187010196909387018093F6
:1004700086019F918F910F900FBE0F901F9018953E
:10048000282F30E0220F331F2C573E4FC90108950B
:10049000E82FF0E0EE0FFF1FEC57FE4F0190F081C8
:1004A000E02DE617F70720F09F01261B370B05C04C
:1004B0009B01209530952E0F3F1FB901CF01089564
:1004C0002F923F924F925F926F927F928F929F9264
:1004D000AF92BF92CF92DF92EF92FF920F931F9352
:1004E000DF93CF93CDB7DEB727970FB6F894DEBF73
:1004F0000FBECDBF80EA91E09F838E83A8E8B1E074
:10050000BC83AB83E8E9F1E0FA83E9832224332456
:100510002D82AE81BF814D905C90B20180E090E071
:100520000E94A20D7B018C01EE81FF81A280B3802D
:10053000C480D580A60195010E94BE0C1816BCF49B
:10054000C801B701A60195010E94BA0A20E030E077
:100550004FE254E40E94BE0C181654F5C601B501D2
:1005600020E030E04FE254E40E94EB0A1EC0C801D4
:10057000B701A60195010E941E0D8823CCF4C60187
:10058000B501A80197010E94BA0A20E030E04FE2CD
:1005900054E40E94BE0C18165CF4C601B50120E0BC
:1005A00030E04FE254E40E94BA0A0E9442092B0153
:1005B000810123E0000F111F2A95E1F708571E4F14
:1005C000AB81BC8114966D917D918D919C91179713
:1005D0000E942807F8012083318342835383648378
:1005E000758386839783A981BA8112966D917C91D8
:1005F00013978D810E944802E981FA81608371839B
:1006000082839383AB81BC816D917D918D919C910F
:100610000E9483077B018C01E981FA8160817181ED
:1006200080E090E00E94A20D20E030E040E05DE339
:100630000E94180BA80197010E94120C20E030E6DE
:100640004AE657E40E94180B3B014C01AE81BF8182
:100650001A966D917D918D919C911D9726E636E6B7
:1006600046E25FE30E94180B7B018C01C401B301D9
:10067000EE81FF8126813781408551850E94BA0A2B
:1006800023E333E343EB5EE30E94180B9B01AC01D1
:10069000C801B7010E94EB0A5B016C01AE81BF810A
:1006A0001A966D937D938D939C931D97B20180E074
:1006B00090E00E94A20DA40193010E94BA0A2FE8C3
:1006C00032EC45E75CE30E94180B7B018C01C6010C
:1006D000B5012AE939E949E15EEB0E94180B9B015B
:1006E000AC01C801B7010E94EB0A5B016C01EE810D
:1006F000FF81E684F78400891189A8019701505889
:100700000E941E0D88232CF480E090E0A0E0B0E071
:1007100014C0C601B501A80197010E94EB0A7B0134
:100720008C0120E030EC4FE754E40E94BE0C181618
:100730005CF480E090ECAFE7B4E4EE81FF81868763
:100740009787A08BB18B08C0AE81BF811E96ED92BA
:10075000FD920D931C935197452851F480E090E051
:10076000A0E0B0E0EE81FF8186879787A08BB18BF8
:10077000AE81BF811E966D917D918D919C91519717
:100780000E949C110E9442099B01AC018D81B9011C
:100790000E943E06EE81FF81668277828086918686
:1007A000DF0162827382848295820894211C311C4D
:1007B0005496BF83AE83EB81FC813896FC83EB8338
:1007C00089819A8104969A83898392E0291631045B
:1007D00009F09ECE27960FB6F894DEBF0FBECDBFB0
:1007E000CF91DF911F910F91FF90EF90DF90CF900D
:1007F000BF90AF909F908F907F906F905F904F9041
:100800003F902F90089585B7856085BF8BB7806C2A
:100810008BBF0E942A0683E00E9438061092A10135
:100820001092A00180E090E0A0E0B0E08093A201EF
:100830009093A301A093A401B093A5018093A60176
:100840009093A701A093A801B093A9018093AA0156
:100850009093AB01A093AC01B093AD018093AE0136
:100860009093AF01A093B001B093B1011092B20187
:100870001092B3011092B5011092B4018093B601A9
:100880009093B701A093B801B093B9018093BA01D6
:100890009093BB01A093BC01B093BD018093BE01B6
:1008A0009093BF01A093C001B093C1018093C20196
:1008B0009093C301A093C401B093C5011092C601E7
:1008C0001092C7010895DC0120E030E04FEF5FEFA8
:1008D00070E01DC0FD01E20FF31F80814827842FC7
:1008E00082958427082E869586958025082E8695E4
:1008F00080258770042E452F869507948795502D67
:10090000482706948795502548272F5F3F4F261785
:10091000370700F3CA010895BC011092C901109273
:10092000C80123C0FB01E40FF51F20818091600006
:10093000909161008227082E8295807F8025092E64
:10094000982F82958F700826869598278927880F7B
:10095000880F880F802590936100809360004F5F1F
:100960005F4F5093C9014093C8014091C801509115
:10097000C901FB0101900020E9F73197E61BF70B55
:100980004E175F0708F4CECF809160009091610010
:1009900008958091CA011092CA0108950F931F9380
:1009A000DF93CF93CDB7DEB729970FB6F894DEBFAC
:1009B0000FBECDBF8091CB018823A1F48E010F5FC4
:1009C0001F4FC8016AE04CE050E00E94B406ACEC56
:1009D000B1E0F80189E001900D928150E1F781E0EA
:1009E0008093CB018CEC91E029960FB6F894DEBF92
:1009F0000FBECDBFCF91DF911F910F910895EF9260
:100A0000FF920F931F93DF93CF93CDB7DEB76C9711
:100A10000FB6F894DEBF0FBECDBFE98AFA8A0B8B02
:100A20001C8B2D8B3E8B4F8B588F698F7A8F8B8FC2
:100A30009C8F8AEF89838E010E5F1F4F492F9E0185
:100A40002E5E3F4FC801B90150E00E9468116C8DC5
:100A50006F5F7E010894E11CF11CC7010E946304D2
:100A60006C8DE62FF0E00E0F1F1FD8019C93EC0F4A
:100A7000FD1F83836D5FC7010E94CD076C960FB683
:100A8000F894DEBF0FBECDBFCF91DF911F910F91C4
:100A9000FF90EF900895EF92FF920F931F93DF93D3
:100AA000CF93CDB7DEB72C970FB6F894DEBF0FBE4D
:100AB000CDBF9FEF9A838B836C8393E09C87E98003
:100AC000FF24FA94082F162F2D813E814F815885DF
:100AD00069857A858B850E94FF042C960FB6F89461
:100AE000DEBF0FBECDBFCF91DF911F910F91FF9061
:100AF000EF900895EF92FF920F931F93DF93CF93A0
:100B0000CDB7DEB72C970FB6F894DEBF0FBECDBFC2
:100B1000F82EE92E0E94CE049093D6018093D50141
:100B20008E010F5F1F4FB8010E9452062F2D3E2DE0
:100B3000C901DC01F8018CE001900D928150E1F7D0
:100B40008F2D9E2D2C960FB6F894DEBF0FBECDBF15
:100B5000CF91DF911F910F91FF90EF900895AF9289
:100B6000BF92CF92DF92EF92FF920F931F93DF938A
:100B7000CF93CDB7DEB72C970FB6F894DEBF0FBE7C
:100B8000CDBF8C019BEFC92EC60E362F37508AEF92
:100B9000D82ED60E1B861A8668506C8740E050E02F
:100BA0005E010894A11CB11C7801ED0CF11CB80188
:100BB000630F711D22C0442321F4F80180818983D1
:100BC0001AC0831729F4FB0180811A868B8713C012
:100BD0008D1549F4F70120818A859B85820F911D2F
:100BE0009B878A8708C0F501E40FF51FD801A40F81
:100BF000B51F8C9180834F5F5F4F842F4C15D8F2C7
:100C0000C801632F0E9463042A853B8582179307DE
:100C100021F081E08093CA0107C00E94CE04BE018A
:100C20006F5F7F4F0E9483062C960FB6F894DEBF4D
:100C30000FBECDBFCF91DF911F910F91FF90EF902D
:100C4000DF90CF90BF90AF900895F8940E94AF05C9
:100C50007894089581B3806381BB1BBC1ABC19BC16
:100C600018BC8FB5836A8FBD8EB581608EBD089527
:100C70009EB58770987F892B8EBD0895882319F0C3
:100C8000813031F403C07BBD6ABD089579BD68BD74
:100C90000895FC0182810895FC0186818093D7012B
:100CA00016820895CF93DF93EC018A81882319F48B
:100CB00083E08E8325C029812093D8018B8190E029
:100CC00030E0281739070CF01982EC81FD81898109
:100CD00090E09C012E9FC0012F9F900D3E9F900D94
:100CE00011242F813885280F391FCB01B901AF019D
:100CF0000E9468118A8181508A8389818F5F8983EC
:100D0000DF91CF910895CF93DF93EC018B81282F52
:100D100030E08A8190E0821793071CF082E08E8396
:100D200020C0888190E0821793070CF01882EC8134
:100D3000FD81888190E09C012E9FC0012F9F900D26
:100D40003E9F900D11242F813885280F391FC9012E
:100D5000AF010E94681188818F5F88838A818F5FCD
:100D60008A83DF91CF910895FF920F931F93CF93C2
:100D7000DF93EC01F62E8A01862F90E0BA010E94E3
:100D80004710009729F418861F8281E08E8303C0E4
:100D900098878F831E821D830C83FB821A8219829F
:100DA0001882CE01DF91CF911F910F91FF9008958E
:100DB00085B5826085BD89B7806489BF08957894C0
:100DC0001F920F920FB60F9211242F938F939F9320
:100DD000AF93BF938091D9019091DA01A091DB018B
:100DE000B091DC010196A11DB11D8093D9019093B2
:100DF000DA01A093DB01B093DC0180549244AF4050
:100E0000B04040F01092D9011092DA011092DB014B
:100E10001092DC01BF91AF919F918F912F910F9014
:100E20000FBE0F901F90189584B52091D901309175
:100E3000DA014091DB015091DC01542F432F322F16
:100E40002227280F311D411D511DB901CA010895E6
:100E5000EF92FF920F931F93DF93CF93CDB7DEB73F
:100E600028970FB6F894DEBF0FBECDBFAB01BC0113
:100E700024B58091D9019091DA01A091DB01B09164
:100E8000DC01BA2FA92F982F8827820F911DA11D51
:100E9000B11D481759076A077B0748F47C018D018B
:100EA000E41AF50A060B170BA801970110C0805031
:100EB000904CAD4BB04F7C018D01E41AF50A060B46
:100EC000170BA801970180509044A244BF408D8326
:100ED0009E83AF83B88729833A834B835C833A81AF
:100EE0004B815C81682F7E818F81988528960FB613
:100EF000F894DEBF0FBECDBFCF91DF911F910F9150
:100F0000FF90EF900895611571058105910589F4B1
:100F100024B58091D9019091DA01A091DB01B091C3
:100F2000DC016627782F892F9A2F620F711D811D92
:100F3000911D0E94A20D20E034E244E75BE40E9490
:100F4000120C20E030E040E051E40E94180B20E059
:100F500030E04AE754E40E94180B089589ED91E0CF
:100F6000089510BC82E289B9599A8AB188698AB910
:100F700008955D9BFECF8CB90895FC019DE009C0EA
:100F80008A3019F45D9BFECF9CB95D9BFECF3196F4
:100F90008CB980818823A1F70895FC0180E006C008
:100FA00090815D9BFECF9CB98F5F31968617C0F311
:100FB000EFE6F0E080815D9BFECF8CB9319680E05A
:100FC000E437F807B9F70895FC01849105C05D9BEB
:100FD000FECF8CB9319684918823C9F7EAE6F0E018
:100FE00080815D9BFECF8CB9319680E0EF36F807AB
:100FF000B9F708950F931F93DF93CF93CDB7DEB763
:10100000C054D0400FB6F894DEBF0FBECDBF1982DA
:101010001A821B821C82FE0135962CE3DF011D9291
:101020002A95E9F72DB73EB7285030400FB6F8940F
:101030003EBF0FBE2DBFEDB7FEB731968E010F5FDD
:101040001F4FADB7BEB712961C930E93119722E6B1
:1010500030E03383228364837583868397830E9481
:101060007811F80101900020E9F73197E01BF10BAE
:101070002DB73EB7285F3F4F0FB6F8943EBF0FBE67
:101080002DBFC8016E2F0E94CD07C05CDF4F0FB689
:10109000F894DEBF0FBECDBFCF91DF911F910F91AE
:1010A00008950F931F93DF93CF93CDB7DEB7C0544E
:1010B000D0400FB6F894DEBF0FBECDBF9B01AC0190
:1010C0005D9BFECF8EE38CB95D9BFECF8EE38CB92A
:1010D00019821A821B821C82FE0135968CE3DF0185
:1010E0001D928A95E9F78DB79EB708970FB6F894C9
:1010F0009EBF0FBE8DBFEDB7FEB731968E010F5F5D
:101100001F4FADB7BEB712961C930E93119786E68C
:1011100090E09383828324833583468357830E94A0
:101120007811F80101900020E9F73197E01BF10BED
:101130008DB79EB708960FB6F8949EBF0FBE8DBFB1
:10114000C8016E2F0E94CD07C05CDF4F0FB6F89428
:10115000DEBF0FBECDBFCF91DF911F910F910895DC
:101160001F93182F882311F481E007C08F3F41F4AB
:101170008091DD01882321F08F5F8093DD0102C023
:101180001092DD018091DD016091E001853050F029
:101190001092DD016F5F81EE91E00E9425061092B2
:1011A000E00110C0862F8F5F8093E001803420F033
:1011B00084E590E00E94E407E091E001F0E0E05275
:1011C000FE4F10831F9108951F920F920FB60F923A
:1011D00011242F933F934F935F936F937F938F933C
:1011E0009F93AF93BF93EF93FF935C9B07C01092C5
:1011F000E00182E690E00E94E40703C08CB10E9407
:10120000B008FF91EF91BF91AF919F918F917F9126
:101210006F915F914F913F912F910F900FBE0F9063
:101220001F9018951F920F920FB60F9211248F9353
:101230009F9381E090E09093DF018093DE019F9186
:101240008F910F900FBE0F901F9018953E9A86B108
:101250008E6886B9089597B1907E982B97B9369A83
:101260008091DE019091DF01892B21F480E08F5F76
:101270008F3FE9F71092DF011092DE0124B135B102
:10128000C9010895EF92FF920F931F937B018C0188
:1012900020E030E040E05FE40E94EE0C88238CF018
:1012A000C801B70120E030E040E05FE40E94BA0AE4
:1012B0000E944E0D9B01AC012050304040405048F0
:1012C00006C0C801B7010E944E0D9B01AC01B901D7
:1012D000CA011F910F91FF90EF900895A0E0B0E038
:1012E000E4E7F9E00C941010DC012B01FA019C9169
:1012F000923008F439C1EB018881823008F433C19F
:10130000943069F4843009F02FC111969C911197A3
:101310008981981709F428C1A4E7B0E025C1843079
:1013200009F421C18230A9F4923009F01DC19A015B
:10133000AD0188E0EA010990AE01E90109929E0140
:101340008150C1F7E201898111969C9189238183A3
:1013500008C1923009F407C112962D903C90139762
:10136000EB018A819B811496AD90BD90CD90DC906D
:101370001797EC80FD800E811F819101281B390B8E
:10138000B90137FF04C066277727621B730B6032F1
:1013900071050CF061C0121613066CF53701480197
:1013A000062E04C096948794779467940A94D2F793
:1013B00021E030E040E050E004C0220F331F441F22
:1013C000551F6A95D2F721503040404050402E21A1
:1013D0003F2140235123211531054105510521F0BD
:1013E00021E030E040E050E079018A01E628F7286A
:1013F000082919293CC0232BD1F1260E371E3501AF
:101400004601062E04C096948794779467940A94B4
:10141000D2F721E030E040E050E004C0220F331F5B
:10142000441F551F6A95D2F721503040404050402C
:101430002A213B214C215D21211531054105510512
:1014400021F021E030E040E050E059016A01A62897
:10145000B728C828D9280BC0821593052CF01C0189
:10146000AA24BB24650103C0EE24FF248701119642
:101470009C91D20111968C91981709F445C099233B
:1014800039F0A80197012A193B094C095D0906C0EA
:10149000A60195012E193F09400B510B57FD08C0BD
:1014A00011823382228224833583468357831DC071
:1014B00081E081833382228288279927DC01821B85
:1014C000930BA40BB50B84839583A683B7830DC0C0
:1014D000220F331F441F551F2483358346835783B0
:1014E0008281938101979383828324813581468110
:1014F0005781DA01C9010197A109B1098F5F9F4F97
:10150000AF4FBF4328F30BC0918333822282EA0C92
:10151000FB1C0C1D1D1DE482F5820683178383E0EE
:101520008083248135814681578157FF1AC0C901C4
:10153000AA2797FDA095BA2F81709070A070B07007
:101540005695479537952795822B932BA42BB52B32
:1015500084839583A683B783828193810196938345
:101560008283DF0101C0D201CD01CDB7DEB7E2E158
:101570000C942C10A0E2B0E0E0ECFAE00C941C100B
:1015800069837A838B839C832D833E834F83588723
:10159000E9E0EE2EF12CEC0EFD1ECE010196B70116
:1015A0000E943F0F8E010F5E1F4FCE010596B801BE
:1015B0000E943F0F8A8991E089278A8BC701B80171
:1015C000AE01475E5F4F0E946E090E946A0EA096B0
:1015D000E6E00C943810A0E2B0E0E1EFFAE00C9401
:1015E0001C1069837A838B839C832D833E834F8376
:1015F0005887F9E0EF2EF12CEC0EFD1ECE0101967E
:10160000B7010E943F0F8E010F5E1F4FCE0105965E
:10161000B8010E943F0FC701B801AE01475E5F4F9E
:101620000E946E090E946A0EA096E6E00C943810A3
:10163000A0E2B0E0EEE1FBE00C94101069837A8345
:101640008B839C832D833E834F835887CE010196E5
:10165000BE01675F7F4F0E943F0FCE010596BE011E
:101660006F5E7F4F0E943F0F9985923088F0898985
:101670008230C8F0943019F4823051F404C08430C0
:1016800029F4923081F484E790E0C6C0923049F4A6
:1016900020E09A858A89981321E02A87CE0109964D
:1016A000BBC0823049F420E09A858A89981321E0F2
:1016B0002A8BCE014196B0C02D843E844F84588839
:1016C0006D887E888F88988CEE24FF248701AA2459
:1016D000BB24650140E050E060E070E0E0E0F0E055
:1016E000C10181709070892BE9F0E60CF71C081D90
:1016F000191D9A01AB012A0D3B1D4C1D5D1D80E09B
:1017000090E0A0E0B0E0E614F7040805190520F425
:1017100081E090E0A0E0B0E0BA01A901480F591FB4
:101720006A1F7B1FAA0CBB1CCC1CDD1C97FE08C0CB
:1017300081E090E0A0E0B0E0A82AB92ACA2ADB2A1A
:101740003196E032F10549F0660C771C881C991C33
:101750005694479437942794C3CFFA85EA892B8906
:101760003C898B859C85280F391F2E5F3F4F17C002
:10177000CA0181709070892B61F016950795F794D6
:10178000E79480E090E0A0E0B0E8E82AF92A0A2B8C
:101790001B2B76956795579547952F5F3F4F77FDA4
:1017A000E7CF0CC0440F551F661F771F17FD416020
:1017B000EE0CFF1C001F111F21503040403090E004
:1017C000590790E0690790E4790760F32B8F3C8F0D
:1017D000DB01CA018F779070A070B07080349105E2
:1017E000A105B10561F447FD0AC0E114F10401054A
:1017F000110529F0405C5F4F6F4F7F4F40781A8E84
:10180000FE1711F081E08A8F4D8F5E8F6F8F78A366
:1018100083E0898FCE0149960E946A0EA096E2E18C
:101820000C942C10A8E1B0E0E8E1FCE00C94181056
:1018300069837A838B839C832D833E834F83588770
:10184000B9E0EB2EF12CEC0EFD1ECE010196B70196
:101850000E943F0F8E010F5E1F4FCE010596B8010B
:101860000E943F0F2985223008F47EC0398932302A
:1018700010F4B8017CC08A859A8989278A87243028
:1018800011F0223031F4231709F06EC064E770E0E4
:101890006EC0343039F41D861E861F86188A1C8659
:1018A0001B8604C0323021F484E08987B7015FC011
:1018B0002B853C858B899C89281B390B3C872B8782
:1018C000ED84FE840F851889AD88BE88CF88D88CBA
:1018D000EA14FB040C051D0540F4EE0CFF1C001F70
:1018E000111F215030403C872B8720E030E040E042
:1018F00050E080E090E0A0E0B0E460E070E0EA1446
:10190000FB040C051D0540F0282B392B4A2B5B2BC3
:10191000EA18FB080C091D09B695A79597958795B8
:10192000EE0CFF1C001F111F6F5F7F4F6F317105A1
:1019300031F7DA01C9018F779070A070B0708034F0
:101940009105A105B10561F427FD0AC0E114F10478
:101950000105110529F0205C3F4F4F4F5F4F207864
:101960002D873E874F87588BBE01675F7F4FCB0126
:101970000E946A0E6896EAE00C943410A8E1B0E088
:10198000E4ECFCE00C941C1069837A838B839C83C9
:101990002D833E834F83588789E0E82EF12CEC0E8F
:1019A000FD1ECE010196B7010E943F0F8E010F5E12
:1019B0001F4FCE010596B8010E943F0F89858230E6
:1019C00040F08989823028F0C701B8010E94B70F22
:1019D00001C08FEF6896E6E00C943810A8E1B0E003
:1019E000E4EFFCE00C941C1069837A838B839C8366
:1019F0002D833E834F83588789E0E82EF12CEC0E2F
:101A0000FD1ECE010196B7010E943F0F8E010F5EB1
:101A10001F4FCE010596B8010E943F0F8985823085
:101A200040F08989823028F0C701B8010E94B70FC1
:101A300001C08FEF6896E6E00C943810A8E1B0E0A2
:101A4000E4E2FDE00C941C1069837A838B839C8311
:101A50002D833E834F83588789E0E82EF12CEC0ECE
:101A6000FD1ECE010196B7010E943F0F8E010F5E51
:101A70001F4FCE010596B8010E943F0F8985823025
:101A800040F08989823028F0C701B8010E94B70F61
:101A900001C081E06896E6E00C943810ACE0B0E05C
:101AA000E4E5FDE00C94201069837A838B839C83AA
:101AB000CE010196BE016B5F7F4F0E943F0F8D816B
:101AC000823061F1823050F1843021F48E8188239C
:101AD00051F12EC02F81388537FD20C06E812F3106
:101AE00031051CF06623F9F023C08EE190E0821BE3
:101AF000930B29853A854B855C8504C0569547959F
:101B0000379527958A95D2F76623B1F05095409581
:101B1000309521953F4F4F4F5F4F0EC020E030E092
:101B200040E050E009C02FEF3FEF4FEF5FE704C008
:101B300020E030E040E050E8B901CA012C96E2E034
:101B40000C943C10A8E0B0E0E8EAFDE00C9418101A
:101B50007B018C01611571058105910519F482E005
:101B6000898360C083E089838EE1C82ED12CDC821A
:101B7000CB82ED82FE820F831887C801B7010E94D5
:101B80001B0EFC013197F7FF3BC0222733272E1B8A
:101B90003F0B57016801022E04C0D694C794B79436
:101BA000A7940A94D2F740E050E060E070E081E052
:101BB00090E0A0E0B0E004C0880F991FAA1FBB1FEF
:101BC0002A95D2F70197A109B1098E219F21A0235F
:101BD000B1230097A105B10521F041E050E060E09C
:101BE00070E04A295B296C297D294D835E836F83D0
:101BF00078878EE190E08E1B9F0B9C838B8312C0B5
:101C0000309781F00E2E04C0EE0CFF1C001F111F38
:101C10000A94D2F7ED82FE820F831887CE1ADF0A6C
:101C2000DC82CB821A82CE0101960E946A0E28962F
:101C3000EAE00C943410EF92FF920F931F937B0114
:101C40008C0180E0E81680E0F80681E0080780E07B
:101C5000180788F48FEFE816F1040105110531F03B
:101C600028F088E090E0A0E0B0E017C080E090E0CD
:101C7000A0E0B0E012C080E0E81680E0F80680E066
:101C8000080781E0180728F088E190E0A0E0B0E0C4
:101C900004C080E190E0A0E0B0E020E230E040E06D
:101CA00050E0281B390B4A0B5B0B04C016950795B7
:101CB000F794E7948A95D2F7F701E458FF4F8081B3
:101CC000281B310941095109C9011F910F91FF904A
:101CD000EF900895DF92EF92FF920F931F93FC0114
:101CE000E480F58006811781D1808081823048F4BC
:101CF00080E090E0A0E1B0E0E82AF92A0A2B1B2B53
:101D0000A5C0843009F49FC0823021F4EE24FF2462
:101D1000870105C0E114F1040105110519F4E0E0A3
:101D2000F0E096C0628173819FEF623879070CF012
:101D30005BC022E83FEF261B370B2A3131052CF020
:101D400020E030E040E050E02AC0B801A701022EB8
:101D500004C076956795579547950A94D2F781E028
:101D600090E0A0E0B0E004C0880F991FAA1FBB1F3D
:101D70002A95D2F70197A109B1098E219F21A023AD
:101D8000B1230097A105B10521F081E090E0A0E02A
:101D9000B0E09A01AB01282B392B4A2B5B2BDA01DF
:101DA000C9018F779070A070B07080349105A10543
:101DB000B10539F427FF09C0205C3F4F4F4F5F4FFB
:101DC00004C0215C3F4F4F4F5F4FE0E0F0E0203018
:101DD000A0E03A07A0E04A07A0E45A0710F0E1E0CB
:101DE000F0E079018A0127C06038710564F5FB01D4
:101DF000E158FF4FD801C7018F779070A070B07085
:101E000080349105A105B10539F4E7FE0DC080E4E9
:101E100090E0A0E0B0E004C08FE390E0A0E0B0E08C
:101E2000E80EF91E0A1F1B1F17FF05C01695079520
:101E3000F794E794319687E016950795F794E79421
:101E40008A95D1F705C0EE24FF248701EFEFF0E07B
:101E50006E2F679566276795902F9F77D794DD241F
:101E6000D7948E2F8695492F462B582F5D29B70181
:101E7000CA011F910F91FF90EF90DF900895FC0130
:101E8000DB01408151812281622F6F7770E0221F38
:101E90002227221F9381892F880F822B282F30E041
:101EA000991F9927991F11969C9311972115310518
:101EB000A9F5411551056105710511F482E037C09E
:101EC00082E89FEF13969C938E9312979A01AB0131
:101ED00067E0220F331F441F551F6A95D1F783E037
:101EE0008C930DC0220F331F441F551F12968D91E6
:101EF0009C911397019713969C938E931297203081
:101F000080E0380780E0480780E4580758F31496CB
:101F10002D933D934D935C93179708952F3F310573
:101F200079F4411551056105710519F484E08C932C
:101F3000089564FF03C081E08C9312C01C9210C00E
:101F40002F57304013963C932E93129783E08C9337
:101F500087E0440F551F661F771F8A95D1F770647D
:101F600014964D935D936D937C93179708951F93EB
:101F7000DC01FB019C91923008F447C080818230E3
:101F800008F443C0943051F411961C91843099F5B3
:101F90008181682F70E0611B71093FC0843021F09E
:101FA000923031F48230B9F18181882389F12DC0DA
:101FB00011961C9111978230F1F081811817D9F494
:101FC00012962D913C9113978281938182179307EA
:101FD00094F028173907BCF014968D919D910D90BF
:101FE000BC91A02D2481358146815781281739075E
:101FF0004A075B0718F4112341F00AC082179307C0
:10200000A407B50740F4112319F061E070E005C0A2
:102010006FEF7FEF02C060E070E0CB011F91089589
:102020002F923F924F925F926F927F928F929F92E8
:10203000AF92BF92CF92DF92EF92FF920F931F93D6
:10204000CF93DF93CDB7DEB7CA1BDB0B0FB6F89487
:10205000DEBF0FBECDBF09942A88398848885F84C7
:102060006E847D848C849B84AA84B984C884DF8038
:10207000EE80FD800C811B81AA81B981CE0FD11D1C
:102080000FB6F894DEBF0FBECDBFED0108950F93DC
:102090001F93CF93DF93689F8001699F100D789FF6
:1020A000100D1124C8010E946310EC01009729F063
:1020B00060E070E0A8010E947111CE01DF91CF9124
:1020C0001F910F910895CF93DF93BC01823091054A
:1020D00010F462E070E0A0910302B0910402ED01FF
:1020E000E0E0F0E040E050E021C08881998186176F
:1020F000970769F48A819B81309719F093838283D3
:1021000004C09093040280930302FE0134C0681758
:10211000790738F44115510519F08417950708F42B
:10212000AC01FE018A819B819C01E9012097E9F6BF
:1021300041155105A9F1CA01861B970B049708F4B4
:10214000BA01E0E0F0E02AC08D919C9111978417CC
:102150009507F9F46417750781F412968D919C9197
:102160001397309719F09383828304C090930402ED
:1021700080930302FD0132964FC0CA01861B970B64
:10218000FD01E80FF91F6193719302978D939C9362
:1021900043C0FD01828193819C01D9011097A1F672
:1021A0008091010290910202892B41F480917E017D
:1021B00090917F01909302028093010240918001EF
:1021C000509181014115510541F44DB75EB78091A1
:1021D0007C0190917D01481B590B209101023091A7
:1021E000020224173507B0F4CA01821B930B86172D
:1021F000970780F0AB014E5F5F4F8417950750F053
:10220000420F531F5093020240930102F901619360
:10221000719302C0E0E0F0E0CF01DF91CF9108952B
:10222000CF93DF93009709F450C0EC0122971B82F3
:102230001A82A0910302B0910402109709F140E0C4
:1022400050E0AC17BD0708F1BB83AA83FE012191C2
:102250003191E20FF31FAE17BF0779F48D919C9176
:102260001197280F391F2E5F3F4F3983288312960D
:102270008D919C9113979B838A834115510571F42D
:10228000D0930402C093030220C012968D919C91BA
:102290001397AD01009711F0DC01D3CFFA01D3837E
:1022A000C28321913191E20FF31FCE17DF0769F44A
:1022B00088819981280F391F2E5F3F4FFA013183A2
:1022C00020838A819B8193838283DF91CF910895BC
:1022D000FB01DC0102C001900D9241505040D8F743
:1022E0000895DC0101C06D9341505040E0F708951E
:1022F000AEE0B0E0EEE7F1E10C941E100D891E890E
:1023000086E08C831A8309838FEF9FE79E838D83FA
:102310009E01275E3F4FCE0101966F89788DA901FE
:102320000E94F6112F813885020F131FF8011082C9
:102330002E96E4E00C943A103BD080F09F3740F4A6
:1023400091110EF04DC060E070E080E89FEB0895C1
:1023500026F41B16611D711D811D01C01BC0882341
:1023600071F4772321F09850872B762F07C06623CE
:1023700011F499270DC09051862B70E060E02AF08F
:102380009A95660F771F881FDAF7880F96958795BD
:1023900097F908959F3F31F0915020F487957795F4
:1023A0006795B795880F911D9695879597F908952C
:1023B000A2D2A0F0BEE7B91788F4BB279F3860F41B
:1023C0001616B11D672F782F8827985FF7CF86954F
:1023D00077956795B11D93959639C8F30895E8945C
:1023E000BB2766277727CB0197F90895ABE0B0E0CC
:1023F000ECEFF1E10C9410103C012B015A01FC01AF
:1024000017821682838181FD03C06FEF7FEFC6C103
:102410009AE0892E1E010894211C311CF3012381AE
:10242000F20123FD859123FF81912F01882309F477
:10243000B2C1853239F423FD859123FF81912F01AB
:10244000853229F490E0B3010E94E913E7CF982F79
:10245000FF24EE249924FFE1FF15D0F09B3269F0B0
:102460009C3228F4903259F0933291F40EC09D3290
:1024700049F0903369F441E024C052E0F52A84E049
:10248000F82A28C098E0F92A25C0E0E1FE2A22C0F7
:10249000F7FC29C0892F80538A3070F4F6FE05C0FE
:1024A000989C902C1124980E15C0E89CE02C1124C7
:1024B000E80EF0E2FF2A0EC09E3229F4F6FC6BC152
:1024C00040E4F42A07C09C3619F450E8F52A02C00B
:1024D000983649F4F20123FD959123FF91912F0144
:1024E000992309F0B8CF892F8554833018F0805292
:1024F000833038F444E050E0A40EB51E5FE3598306
:102500000FC0933631F0933779F0933509F056C008
:1025100020C0F5018081898342E050E0A40EB51E01
:10252000610101E010E012C0F501C080D180F6FC2D
:1025300003C06FEF7FEF02C0692D70E042E050E012
:10254000A40EB51EC6010E94DE138C015FE7F522C2
:1025500014C0F501C080D180F6FC03C06FEF7FEF9F
:1025600002C0692D70E042E050E0A40EB51EC60125
:102570000E94D3138C0150E8F52AF3FE07C01AC05D
:1025800080E290E0B3010E94E913EA948E2D90E07E
:1025900008171907A8F30EC0F601F7FC8591F7FE9E
:1025A00081916F0190E0B3010E94E913E110EA9478
:1025B000015010400115110579F7EAC0943611F069
:1025C000993669F5F7FE08C0F50120813181428115
:1025D000538184E090E00AC0F501808191819C01E3
:1025E000442737FD4095542F82E090E0A80EB91E95
:1025F0009FE6F92257FF09C05095409530952195E7
:102600003F4F4F4F5F4FE0E8FE2ACA01B901A101D9
:102610002AE030E00E941514D82ED21840C0953719
:1026200029F41F2D1F7E2AE030E01DC01F2D197FC9
:102630009F3661F0903720F4983509F0ACC00FC098
:10264000903739F0983709F0A6C004C028E030E090
:102650000AC0106114FD146020E130E004C014FDD4
:10266000166020E132E017FF08C0F501608171813A
:102670008281938144E050E008C0F501808191811E
:10268000BC0180E090E042E050E0A40EB51EA10144
:102690000E941514D82ED2188FE7F82EF122F6FEDC
:1026A0000BC05EEFF522D91438F4F4FE07C0F2FC3B
:1026B00005C08FEEF82202C01D2D01C0192DF4FEB9
:1026C0000DC0FE01ED0DF11D8081803319F499EEEE
:1026D000F92208C01F5FF2FE05C003C08F2D867867
:1026E00009F01F5F0F2DF3FC14C0F0FE0FC01E1584
:1026F00010F09D2C0BC09D2C9E0C911A1E2D06C017
:1027000080E290E0B3010E94E9131F5F1E15C0F341
:1027100004C01E1510F4E11A01C0EE2404FF0FC01E
:1027200080E390E0B3010E94E91302FF1DC001FDA8
:1027300003C088E790E00EC088E590E00BC0802FD2
:10274000867891F001FF02C08BE201C080E2F7FCC5
:102750008DE290E0B3010E94E91306C080E390E0AF
:10276000B3010E94E9139A94D914C0F3DA94F101E9
:10277000ED0DF11D808190E0B3010E94E913DD2091
:10278000A9F706C080E290E0B3010E94E913EA9441
:10279000EE20C1F743CEF30166817781CB012B9602
:1027A000E2E10C942C10FC01059061507040011086
:1027B000D8F7809590958E0F9F1F0895FC0161506A
:1027C000704001900110D8F7809590958E0F9F1F53
:1027D00008950F931F93CF93DF938C01EB018B81AF
:1027E00081FF1BC082FF0DC02E813F818C819D81A6
:1027F0002817390764F4E881F9810193F983E883A4
:1028000006C0E885F985802F0995892B31F48E81E2
:102810009F8101969F838E8302C00FEF1FEFC80137
:10282000DF91CF911F910F910895FA01AA272830C7
:1028300051F1203181F1E8946F936E7F6E5F7F4F8D
:102840008F4F9F4FAF4FB1E03ED0B4E03CD0670F09
:10285000781F891F9A1FA11D680F791F8A1F911D5C
:10286000A11D6A0F711D811D911DA11D20D009F4AC
:1028700068943F912AE0269F11243019305D3193EE
:10288000DEF6CF010895462F4770405D4193B3E0D7
:102890000FD0C9F7F6CF462F4F70405D4A3318F07E
:1028A000495D31FD4052419302D0A9F7EACFB4E02F
:1028B000A6959795879577956795BA95C9F70097E7
:1028C0006105710508959B01AC010A2E0694579588
:1028D000479537952795BA95C9F7620F731F841FDF
:1028E000951FA01D089557FD9058440F551F59F08E
:1028F0005F3F71F04795880F97FB991F61F09F3FED
:1029000079F087950895121613061406551FF2CF15
:102910004695F1DF08C0161617061806991FF1CF65
:0E29200086957105610508940895F894FFCF1F
:10292E00FFFF256C5800256C690000FFFFFFFF00BC
:10293E00FFFFFFFF00000000000000000001020288
:10294E000303030304040404040404040505050539
:10295E000505050505050505050505050606060615
:10296E0006060606060606060606060606060606F9
:10297E0006060606060606060606060607070707E5
:10298E0007070707070707070707070707070707C9
:10299E0007070707070707070707070707070707B9
:1029AE0007070707070707070707070707070707A9
:1029BE000707070707070707070707070808080895
:1029CE000808080808080808080808080808080879
:1029DE000808080808080808080808080808080869
:1029EE000808080808080808080808080808080859
:1029FE000808080808080808080808080808080849
:102A0E000808080808080808080808080808080838
:102A1E000808080808080808080808080808080828
:102A2E000808080808080808080808080808080818
:102A3E000808080808080808080808082000050201
:022A4E00000086
:00000001FF
